:020000040800F2
:10000000E00C0020711C00082D0A00082F0A0008CF
:10001000330A0008370A00083B0A00080000000005
:100020000000000000000000000000003F0A00087F
:10003000410A000800000000430A0008891C00086B
:100040008B1C00088B1C00088B1C00088B1C0008F4
:100050008B1C00088B1C00088B1C00088B1C0008E4
:100060008B1C00088B1C00088B1C00088B1C0008D4
:100070008B1C00088B1C00088B1C00088B1C0008C4
:100080008B1C00088B1C00088B1C00088B1C0008B4
:100090008B1C00088B1C00088B1C00088B1C0008A4
:1000A0008B1C00088B1C00088B1C00088B1C000894
:1000B0008B1C00088B1C00088B1C00088B1C000884
:1000C0008B1C00088B1C00088B1C00088B1C000874
:1000D0008B1C0008952E0008990E00088B1C000848
:1000E0008B1C00088B1C00088B1C000800F002F819
:1000F00000F090F80AA090E8000C82448344AAF132
:100100000107DA4501D100F085F8AFF2090EBAE82F
:100110000F0013F0010F18BFFB1A43F0010318473B
:100120001083000030830000103A24BF78C878C1E3
:10013000FAD8520724BF30C830C144BF04680C60ED
:10014000704700000023002400250026103A28BF35
:1001500078C1FBD8520728BF30C148BF0B60704739
:100160006E2903F02682702903F07B83662906F04E
:10017000D580652906F0D280672906F0CF806129F5
:1001800006F0CE8003681B0A28BF41F08001692970
:1001900002F07887642902F07587752902F072876A
:1001A0006F2903F00883782903F04783E92903F0D6
:1001B000A382E42903F0A082F52903F09D82EF29B0
:1001C00003F00583F82903F046830368DB0928BFA1
:1001D00041F08001632904F04982732904F04E82C2
:1001E000E32904F05982F32904F05E82002070476D
:1001F0001FB503F04DFE04000020002105F0C6FCF1
:10020000401C60600020002105F0AAFCE0601FBDDA
:1002100010B510BD04F0A0FC1146FFF7E9FF00F097
:100220007FF804F03DFF03B4FFF7F2FF03BC02F0D8
:10023000C9FD0000044603E02146FEA002F016FFBF
:10024000FAE7F8B50026FE4890F85000002866D07E
:100250000020FB4981F8500000BF5EE046B9F9A1DB
:10026000F74803F02DF8041E55D10120FFF7E2FFF7
:10027000641CF4A1204603F023F8051E48D0072E85
:100280002ED2DFE806F02D040B11181F26002A1BC2
:100290002146EB48523003F025F822E02A1B214684
:1002A000684603F01FF81CE02A1B2146E4485D3035
:1002B00003F018F815E02A1B2146E148683003F0E6
:1002C00011F80EE02A1B2146DD486A3003F00AF8D7
:1002D00007E02A1B2146DA48763003F003F800E0F5
:1002E00000BF00BF2C460120D54981F851009DF880
:1002F0000000412803D1012081F8780007E09DF833
:100300000000562803D10020CD4981F8780002E092
:100310000220FFF78FFF701CC6B2062E9EDDF8BDCF
:1003200088B002F0DFFC02F047FD4FF4165002F0F7
:1003300060FD00F077FC0120C349086000F0C8FCB4
:1003400002F0F8FD00F014FE01F02EFB00F098FE24
:1003500000F0DAFD01F069FC0120102300221146B3
:100360000090104601F0D0F9012010230246002130
:100370000090184601F0C8F9012010230222194606
:100380000090002001F0C0F901201023032219463B
:100390000090184601F0B8F98EE2FFF752FFAB4A21
:1003A000ABA1A7485D3002F06DFFAA4AA8A1A448FE
:1003B0006A3002F067FFA848A8490860A848A94920
:1003C0000860A648006805F0A7FE0790079805F0AA
:1003D000BFFE0546A1480168284605F01CFF0446FB
:1003E00005F00CFE8046894600229F4B4046494658
:1003F00005F0D0FC044605F061FC8246994800688F
:1004000005F08AFE0690069805F0A2FE054695487E
:100410000168284605F0FFFE044605F0EFFDCDE932
:1004200004010022904BDDE9040105F0B3FC044611
:1004300005F044FC03908D480078012842D100204B
:100440008A4908708049086089A1984802F0B2FF83
:1004500010B901209649087096A1944802F0AAFFAD
:1004600028B9002092490870A1A000F0E7FCAFA1D4
:100470008E4802F09FFF88B97A48006805F0BEFDFB
:1004800004460D467548006805F0B8FD064632463C
:100490000B46B448CDE9004500F0D0FCB2A183483A
:1004A00002F088FF50B9BE49BE4801F092FBBC483B
:1004B0000278BC480178BC4800F0C0FC64217B484D
:1004C00002F055FF7A48007810B101287ED18AE009
:1004D00001201023042230210090202001F014F983
:1004E00001201023052230210090084601F00CF96C
:1004F00001201023062230210090402001F004F951
:1005000001201023072230210090502001F0FCF838
:1005100000F00CFDA549087008460078012813D1A9
:10052000A34800F08BFC00204749086040F6B83033
:1005300002F015FC9FA000F081FC40F6B83002F0FC
:100540000EFCA8A000F07AFC98480078042849D155
:100550004448006805F052FD04460D463F480068D7
:1005600005F04CFD064632460B467E48CDE9004577
:1005700000F064FC01203449086010210323CDE918
:10058000001000212020069A01F074F801220E21AB
:100590003A2000F0BDFE012010210623CDE9001015
:1005A00000214020039A01F065F801201021032367
:1005B000CDE900102020079A01F05CF801221E21ED
:1005C0003A2000F0A5FE0120102100E072E1062390
:1005D0005246CDE90010402001F04CF840F6B8300A
:1005E00002F0BDFB66E101201023082230210090BB
:1005F000202001F089F801201023092230210090E9
:10060000084601F081F801201023062230210090D5
:10061000402001F079F801201023072230210090BA
:10062000502001F071F800F043FD774908804FF445
:100630007A70EBE04552524F5225640D0A000000DB
:100640003C0500202C000000B40122420C000020D8
:10065000256600001000002021300D42140000200B
:100660002AE9E3421800002080842E410100002086
:100670002B4D515454535542524543563A302C2237
:10068000617474726962757465732F707573682212
:100690002C32302C7B22616C61726D5F73746174DB
:1006A00065223A747275657D0D0A000058000020BD
:1006B000040000202B4D515454535542524543568B
:1006C0003A302C22617474726962757465732F708C
:1006D000757368222C32312C7B22616C61726D5FE4
:1006E0007374617465223A66616C73657D0D0A00EE
:1006F00041542B4D5154545055423D302C2261747D
:100700007472696275746573222C227B205C226F7F
:1007100063637570616E63795C223A2066616C7305
:10072000657D222C302C300D0A0000002B4D5154D9
:1007300054535542524543563A302C2261747472D8
:100740006962757465732F70757368222C31342C4F
:100750007B2272656C617933223A2231227D0D0A47
:1007600000000000E08300082B4D515454535542C3
:10077000524543563A302C22617474726962757422
:1007800065732F70757368222C31342C7B2272654F
:100790006C617933223A2232227D0D0A000000007A
:1007A0000900002008000020948300081C0000209D
:1007B0005083000841542B4D515454434F4E4E3DED
:1007C000302C2273682D312D6D7174742E696F7405
:1007D0002D6170692E636F6D222C313838332C31C6
:1007E0000D0A000041542B4D5154545355423D3095
:1007F0002C22617474726962757465732F707573DD
:1008000068222C310D0A00000200002002F0A7FA35
:1008100000F04EFC834650480088584505DD4E48A0
:100820000088A0EB0B004D4908804B4800885845D4
:1008300005DA49480088ABEB000048490880474882
:100840000088B0F5967F34DD45A000F0F7FA01206E
:1008500010210323CDE9001000212020069A00F08A
:1008600009FF01220E213A2000F052FD0120102143
:100870000623CDE9001000214020039A00F0FAFE83
:10088000012010210323CDE900102020079A00F059
:10089000F1FE01221E213A2000F03AFD0120102134
:1008A00006235246CDE90010402000F0E3FE00F0A0
:1008B00077FB00BF00BF00BF6FE510B5374890F869
:1008C0005100002847D00020344981F8510034A05D
:1008D00002F0CCFB3148523002F0AAFBAFF23820D4
:1008E00002F0C4FB2D4890F87800002830D000209A
:1008F0002A4981F8780030A002F0B8FB27485D3023
:1009000002F096FBAFF2602002F0B0FB30A002F0E4
:10091000ADFB2248683002F08BFBAFF2742002F08E
:10092000A5FB30A002F0A2FB1C486A3002F080FB5D
:10093000AFF28C2002F09AFB30A002F097FB174830
:10094000763002F075FBAFF2A02002F08FFB02E0E0
:100950002FA002F08BFB10BD02000020060000203B
:1009600041542B4D5154545055423D302C2261740A
:100970007472696275746573222C227B205C226F0D
:1009800063637570616E63795C223A207472756579
:100990007D222C302C300D0A000000003C05002088
:1009A000536176655F446174612E55544354696D9B
:1009B00065203D2000000000536176655F4461744E
:1009C000612E6C61746974756465203D20000000BF
:1009D000536176655F446174612E4E5F53203D2004
:1009E00000000000536176655F446174612E6C6F96
:1009F0006E676974756465203D20000053617665FB
:100A00005F446174612E455F57203D200000000067
:100A10004750532044415441206973206E6F742025
:100A200075736566756C6C210D0A0000704700BF18
:100A3000FEE700BFFEE700BFFEE700BFFEE770472E
:100A4000704770470CB50020019000906C4800681A
:100A500040F480306A49086000BF6948006800F4CB
:100A6000003000900198401C0190009818B901983E
:100A7000B0F5A06FF1D16248006800F4003010B109
:100A80000120009001E0002000900098012843D14F
:100A90005C48006840F010005A4908600846006849
:100AA00020F0030008600846006840F0020008607B
:100AB00053484068524948600846406848600846C4
:100AC000406840F4806048600846406820F47C102C
:100AD00048600846406840F4E810486008460068EE
:100AE00040F08070086000BF4548006800F000706A
:100AF0000028F9D04248406820F00300404948608F
:100B00000846406840F00200486000BF3C4840682A
:100B100000F00C000828F9D10CBD10B5FFF792FFCA
:100B200010BD10B53648006840F001003449086037
:100B30000846406834490840314948600846006822
:100B4000324908402E4908600846006820F4802099
:100B500008600846406820F4FE0048604FF41F001B
:100B60008860FFF7DAFF4FF000602949086010BD88
:100B700010B5002100200022214B5B6803F00C011E
:100B800021B1042906D0082928D107E0214B224CA5
:100B9000236027E01F4B204C236023E0184B5B6849
:100BA00003F47010164B5B6803F48032022303EBEE
:100BB000904022B9194B4343174C23600DE0104B72
:100BC0005B6803F4003323B1144B4343124C23609E
:100BD00003E0104B4343104C236003E00D4B0E4CDD
:100BE000236000BF00BF064B5B68C3F303130C4CCC
:100BF000E15C094B1B68CB40074C236010BD000033
:100C000000100240002002400000FFF8FFFFF6FE47
:100C100008ED00E000127A002000002000093D00ED
:100C20002400002008B50121102001F0CBFB4FF477
:100C30000050ADF8000010208DF8030003208DF85F
:100C400002006946204801F001F94FF400511E48A6
:100C500001F0A9F908BD70B504460D461A48844252
:100C600004D12946204601F09EF906E01748844247
:100C700003D12946204601F098F970BD70B50446AD
:100C80000D461148844204D12946204601F08DF9D1
:100C900006E00E48844203D12946204601F083F93C
:100CA00070BD70B504460D462946204601F06EF928
:100CB00020B929462046FFF7E1FF03E029462046F8
:100CC000FFF7C9FF70BD000000100140001801408F
:100CD00010B586B00121042001F074FB0121480405
:100CE00001F07DFB18208DF817000420ADF81400EA
:100CF00003208DF8160005A97C4801F0A7F8042010
:100D00008DF813000820ADF8100003208DF81200B4
:100D100004A9764801F09AF84FF4E13000900020E1
:100D2000ADF80C000C20ADF80A000020ADF808006A
:100D3000ADF80600ADF8040069466D4801F0E9FB26
:100D4000012240F225516A4801F07BFC012240F269
:100D50002441674801F075FC26200321002807DAAA
:100D60000A07140E634A00F00F031B1FD45403E05C
:100D70000A07130E604A135400BF262000F01F021A
:100D8000012191404209920002F1E022C2F80011D3
:100D900000BF0121564801F048FC06B010BD10B557
:100DA00004462146524801F0ADFC00BF8021504866
:100DB00001F016FD0028F9D010BD70B505460E46AD
:100DC000002404E0285DFFF7EAFF601C84B2B4420F
:100DD000F8DB70BD70B50446002504E0605DFFF7E8
:100DE000DEFF681CC5B2605D0028F7D170BD10B58C
:100DF0000246012000E050430B1EA1F10101FAD18F
:100E000010BD2DE9F04106460C46002512E0601B9E
:100E1000411E0A20FFF7EBFFB6FBF0F00A21B0FB02
:100E2000F1F201FB120000F130073846FFF7B7FF7F
:100E3000681CC5B2A542EADBBDE8F0810FB400B57D
:100E40009BB01DA8019002A8019A1C9902F0FCF821
:100E50000020019002A8FFF7BDFF1BB05DF814FB56
:100E600010B5044600BF8021214801F0B9FC0028DC
:100E7000F9D021461E4801F045FC10BD70B504466E
:100E800007E0257805B905E02846FFF7E9FF641C6F
:100E900000BFF6E700BF70BD10B5002440F2255139
:100EA000134801F0B3FC01280BD1114801F02EFCCE
:100EB0001249134A1278885411480078401C10498E
:100EC000087040F224410A4801F0A0FC01280CD12E
:100ED00007480088C4B20648001D0088C4B201203B
:100EE0000849087000200649087010BD000801403C
:100EF0000044004018ED00E000E400E0580000204D
:100F0000000000200100002008B50121082001F0A8
:100F100059FA48208DF803000320ADF800008DF841
:100F200002006946114800F091FF08BD10B5002489
:100F300002210E4801F01DF840B9142001F00FFF06
:100F400002210A4801F015F800B9012401210748DF
:100F500001F00FF840B9142001F001FF012103480E
:100F600001F007F800B90424204610BD000C014030
:100F700008B50121082001F025FA10208DF80300A2
:100F80000002ADF8000003208DF8020069463B48DE
:100F900000F05CFF4FF48051384801F004F808BDC0
:100FA00010B54FF48051354800F0FFFF642001F088
:100FB000D6FE4FF48051314800F0F5FF642001F077
:100FC000CEFE4FF480512D4800F0EFFF642001F079
:100FD000C6FE4FF48051294800F0E5FF642001F07F
:100FE000BEFE4FF48051254800F0DFFF642001F081
:100FF000B6FE4FF48051214800F0D5FF642001F087
:10100000AEFE4FF480511D4800F0CFFF642001F088
:10101000A6FE4FF48051194800F0C5FF642001F08E
:101020009EFE4FF48051154800F0BFFF642001F090
:1010300096FE4FF48051114800F0B5FF10BD10B579
:101040004FF480510D4800F0B0FF642001F087FE9E
:101050004FF48051094800F0A6FF642001F07FFEA4
:101060004FF48051054800F0A0FF642001F077FEA6
:101070004FF48051014800F096FF10BD000C014074
:1010800008B50121042001F09DF90120ADF8000010
:1010900000208DF803006946104800F0D7FE01F0EB
:1010A00077FF08BD10B50521002001F0A5FF10BD98
:1010B00070B50024002507E0FFF7F4FF0444052085
:1010C00001F04DFE681CC5B20A2DF5DB0A20B4FB09
:1010D000F0F440F6FF70001B80B270BD00080140C4
:1010E000032000BF011EA0F10102D0B2FAD1704767
:1010F00010B54FF40071F84800F057FF4FF48071BD
:10110000F54800F050FFFFF7EBFF4FF40071F24895
:1011100000F049FF10BD10B54FF40071EE4800F02B
:1011200042FFFFF7DDFF4FF48071EB4800F03BFF1B
:10113000FFF7D6FF4FF48071E74800F036FFFFF766
:10114000CFFF10BD70B5044600251FE004F08000FD
:1011500028B14FF40071E04800F025FF04E04FF49F
:101160000071DD4800F021FFFFF7BAFF4FF48071F6
:10117000D94800F018FFFFF7B3FF4FF48071D6484D
:1011800000F013FF6006040E681CC5B2082DDDDBFD
:1011900070BD10B54FF40071CF4800F004FF4FF45C
:1011A0008071CD4800F0FFFEFFF79AFF4FF4007109
:1011B000C94800F0FAFEFFF793FF4FF48071C6486C
:1011C00000F0F3FEFFF78CFF10BD70B505460C462E
:1011D000FFF7DFFF7820FFF7B5FFFFF79CFF1CB19B
:1011E0004020FFF7AFFF02E00020FFF7ABFFFFF763
:1011F00092FF2846FFF7A6FFFFF78DFFFFF778FF66
:1012000070BD10B504461CB90021A620FFF7DDFF14
:10121000012C03D10021A720FFF7D7FF10BD10B587
:1012200004463CB90021C820FFF7CFFF0021A120D0
:10123000FFF7CBFF012C07D10021C020FFF7C5FF2E
:101240000021A020FFF7C1FF10BD10B500218D20A7
:10125000FFF7BBFF00211420FFF7B7FF0021AF20ED
:10126000FFF7B3FF10BD10B500218D20FFF7ADFFD4
:1012700000211020FFF7A9FF0021AE20FFF7A5FFF6
:1012800010BD70B500242BE004F1B001C8B20021FC
:10129000FFF79BFF00210846FFF797FF0021102072
:1012A000FFF793FFFFF775FF7820FFF74BFFFFF77E
:1012B00032FF4020FFF746FFFFF72DFF002509E032
:1012C000864901EBC501085DFFF73CFFFFF723FFEF
:1012D000681CC5B2802DF3DBFFF70AFF601CC4B2A7
:1012E000082CD1DB70BD70B500240CE0002506E0B1
:1012F00000207A4901EBC5010855681CC5B2802D54
:10130000F6DB601CC4B2082CF0DBFFF7BAFF70BD3F
:10131000F0B514460B46CF1701EB5777C7F3C7025A
:10132000CF1701EB5777FF10A1EBC707FEB20123E0
:10133000B340DDB24CB1694B03EBC0039B5C2B4364
:10134000664F07EBC007BB541AE0644B03EBC003C6
:101350009B5CDB43614F07EBC007BB545F4B03EB68
:10136000C0039B5C2B435D4F07EBC007BB545B4B3B
:1013700003EBC0039B5CDB43584F07EBC007BB5438
:10138000F0BD2DE9FF4F84B081468A4600200290CF
:1013900083460698A0EB09040798A0EB0A06CDF84F
:1013A0000490CDF800A0002C01DD012705E00CB968
:1013B000002702E04FF0FF376442002E02DD4FF0BD
:1013C000010806E016B94FF0000802E04FF0FF38C0
:1013D0006642B44201DD254600E035460020039018
:1013E0001EE0009AD1B2019AD0B2119AFFF790FF95
:1013F000029820440290B3440298A84205DD029866
:10140000401B0290019838440190AB4504DDABEBE2
:10141000050B0098404400900398401C80B2039054
:10142000691C03988842DCDB08B0BDE8F08F2DE929
:10143000F04306460F4690460025444643E03A1BDB
:10144000D1B27219D0B20122FFF762FF3A1BD1B2BA
:10145000721BD0B20122FFF75BFF3A19D1B2721BA7
:10146000D0B20122FFF754FF3A19D1B27219D0B2AB
:101470000122FFF74DFF7A19D1B23219D0B2012201
:10148000FFF746FF7A1BD1B23219D0B20122FFF723
:101490003FFF7A1BD1B2321BD0B20122FFF738FFD7
:1014A0007A19D1B2321BD0B20122FFF731FF6D1C85
:1014B00005FB05F004FB040008FB1809B9F1000F57
:1014C00001DD641E6D1E6000604308FB08F1884268
:1014D000B5DABDE8F0830000000C0140BC0000203C
:1014E0002DE9FE4F0746884692461C460197CDF8E7
:1014F0000080082C02D14FF006091FE02046E317B8
:1015000004EB5373DB1021464FEAE47C04EB5C7C74
:101510004FEAEC0CA4EBCC0CBCF1000F02D04FF066
:10152000010C01E04FF0000C6344224604EBD27C36
:101530004FEA6C0C03FB0CF303F0FF09AAF1200047
:10154000C6B200255EE0082C07D106EB4600FE4936
:1015500001EB400010F805B01DE00C2C07D106EBA4
:101560004600FA4901EB800010F805B013E0102C9A
:1015700005D1F74800EB061010F805B00BE0182C69
:1015800007D106EBC600F34901EB800010F805B067
:1015900001E0BDE8FE8F002002901CE00BF001008E
:1015A00028B1414638460C9AFFF7B2FE09E00C9884
:1015B00008B9012000E00020024641463846FFF706
:1015C000A7FE4FEA6B0B08F1010000F0FF0802983C
:1015D000401CC0B2029002980828DFDB781CC7B21A
:1015E000082C0BD004EBD4714A100199791A8A4265
:1015F00004D1019F00980830C0B20090DDF800804F
:10160000681CC5B24D459EDBFFF73BFE00BFC0E73F
:101610002DE9F84306460F4614461D46DDF82080A6
:1016200013E0CDF8008022782B4639463046FFF78C
:1016300057FF082D02D1B01DC6B205E0284605EBC4
:10164000D07106EB6101CEB2641C2078202802DB49
:1016500020787E28E5DDFFF714FEBDE8F88310B59D
:101660000246012000E050430B1EA1F10104E1B24B
:10167000F9D110BD2DE9FF4F83B0064691461F46B4
:10168000DDE9104A4FF0000B082C01D14FF0020B9E
:10169000002532E0781B401EC1B20A20FFF7DFFFB1
:1016A000B9FBF0F00A21B0FBF1F201FB1208B8F12E
:1016B000000F0FD104EBD4710BEB610101FB05614D
:1016C000C8B223463022CDF800A002940499FFF757
:1016D00007FF10E004EBD4710BEB610101FB056126
:1016E000C8B208F13001CAB22346CDF800A0029476
:1016F0000499FFF7F5FE681CC5B2BD42CADBFFF7CF
:10170000C0FD07B0BDE8F08F2DE9FC5F07468846B5
:1017100016461C46BB46CDF804802046E21704EB73
:101720005272D2102146E31704EB5373DB10A4EB83
:10173000C3030BB1012300E000231A44624392B2B9
:101740000092002555E0102C05D1834800EB46108F
:1017500010F805A01BE0182C07D106EBC6007F4946
:1017600001EBC00010F805A011E0202C05D17C4849
:1017700000EBC61010F805A009E0402C05D179480F
:1017800000EB462010F805A001E0BDE8FC9F4FF0FB
:1017900000091CE00AF0010028B1414638460C9AC5
:1017A000FFF7B6FD09E00C9808B9012000E0002021
:1017B000024641463846FFF7ABFD4FEA6A0A08F198
:1017C000010000F0FF0809F1010000F0FF09B9F184
:1017D000080FDFDB781CC7B2A7EB0B00A04204D1D7
:1017E0005F4601980830C0B20190DDF80480681CA3
:1017F00085B200988542A6DBFFF743FD00BFC4E732
:1018000008B5804689469246002600274BE04FB92E
:101810001023324618218020CDF800A0FFF774FF76
:10182000701CC6B2464522D14FF0000B1AE00124CD
:1018300010E000250AE04C4800EBC400415D601E4A
:10184000494A02EBC0004155681CC5B2082DF2DBC5
:10185000601CC4B2902CECDBFFF713FD0BF1010010
:1018600000F0FF0B4FEA09105845E0DC0026781C19
:10187000C7B2102F00D10027012410E000250AE094
:10188000394800EBC400415D601E374A02EBC000DE
:101890004155681CC5B2082DF2DB601CC4B2902C07
:1018A000ECDBFFF7EEFCB2E72DE9FF5F05460E46E5
:1018B00017461C46DDF83C904FF0000A0095B346F1
:1018C0002046E21704EB5272D2102146E31704EBD4
:1018D0005373DB10A4EBC3030BB1012300E000231F
:1018E0001A44D4B24FF0000858E0002003904EE0B4
:1018F0000E9810F80A0002900AF101001FFA80FA0F
:10190000002001901DE0029800F0010028B14A4635
:1019100031462846FFF7FCFC0AE0B9F1000F01D17F
:10192000012000E00020024631462846FFF7F0FC87
:10193000029840100290701CC6B20198401CC0B2C0
:1019400001900198082811E020640008486600080A
:10195000BC6A0008AC700008087E0008887F000898
:10196000D07F000850800008BC000020CBDB681C42
:10197000C5B20098281AB84204D1009D0BF10800A6
:1019800000F0FF0B5E460398401CC0B20390039822
:10199000B842ADDB08F1010000F0FF08A045A4DB70
:1019A000FFF76FFCBDE8FF9F08B50121082000F09C
:1019B00009FD4FF48070ADF8000014208DF803008D
:1019C00003208DF802006946414800F03FFA4FF4C9
:1019D00080713F4800F0E7FA4FF40070ADF8000066
:1019E00069463B4800F032FA4FF40071384800F085
:1019F000DAFAC82001F0B3F90021AE20FFF7E5FBC9
:101A000000210846FFF7E1FB00211020FFF7DDFB76
:101A100000214020FFF7D9FB00218120FFF7D5FBF3
:101A20000021CF20FFF7D1FB0021A120FFF7CDFB44
:101A30000021C820FFF7C9FB0021A620FFF7C5FB46
:101A40000021A820FFF7C1FB00213F20FFF7BDFBCD
:101A50000021D320FFF7B9FB00210846FFF7B5FBB3
:101A60000021D520FFF7B1FB00218020FFF7ADFB5F
:101A70000021D920FFF7A9FB0021F120FFF7A5FBEA
:101A80000021DA20FFF7A1FB00211220FFF79DFBC8
:101A90000021DB20FFF799FB00213020FFF795FBA9
:101AA00000212020FFF791FB00210220FFF78DFB92
:101AB00000218D20FFF789FB00211420FFF785FB13
:101AC000FFF711FC0021AF20FFF77FFB08BD0000EE
:101AD000000C014010B56348006820F47040614973
:101AE00008600846006840F44050086000205E49E5
:101AF0000860142001F033F901205C49C1F8AC0101
:101B00001E2001F008F910BD10B5002455480068EA
:101B100020F47040534908600846006840F40040D3
:101B2000086004E0601CC4B2012001F0F4F84E48E3
:101B30008038006808B1642CF4DB642C01DB0120E0
:101B400010BD002404E0601CC4B2012001F0E3F8E1
:101B500045488038006808B9642CF4DB642C01DB4C
:101B60000120EDE70020EBE710B5002404E0601C45
:101B7000C4B2012001F0CFF83B488038006808B1BA
:101B8000642CF4DB002404E0601CC4B2012001F0EA
:101B9000C2F835488038006808B9642CF4DB282086
:101BA00001F0B9F830488038006808B1012010BD54
:101BB0000020FCE770B50024002506E06006040E56
:101BC000FFF7D2FF0443681CC5B2082DF6DB2046A0
:101BD00070BD7CB505460E46FFF77CFFFFF794FF0E
:101BE000F8B9002405E0FFF7E5FF0DF80400601CDC
:101BF000C4B2052CF7DB9DF800009DF801100844E5
:101C00009DF8021008449DF8031008449DF8041044
:101C1000884208D19DF8000030709DF802002870BD
:101C200001E001207CBD0020FCE708B50121042073
:101C300000F0C8FB4FF40060ADF8000010208DF8F4
:101C4000030003208DF8020069460648001F00F0DB
:101C5000FDF84FF400610348001F00F0A4F9FFF7FE
:101C600039FF08BD04080140AC01214200002142B7
:101C70000948804709480047FEE7FEE7FEE7FEE720
:101C8000FEE7FEE7FEE7FEE7FEE7FEE7044805495C
:101C9000054A064B70470000230B0008ED000008C2
:101CA000E0060020E00C0020E0080020E008002012
:101CB00031490143314A1160704770B5002100235A
:101CC0000F22C47804B32D4C246804F4E064C4F5F6
:101CD000E064210AC1F10403CA40447804FA03F124
:101CE0008478144021430901254C0678A1550478D5
:101CF00004F01F050124AC4005786D11AD0005F11D
:101D0000E025C5F8004109E0047804F01F0501242E
:101D1000AC401C4D0678761145F8264070BD1A4A35
:101D20000A400243154B1B1F1A60704739B1134A12
:101D3000121D12680243114B1B1D1A6006E00F4A68
:101D4000121D126882430D4B1B1D1A607047042838
:101D500008D14FF0E021096941F004014FF0E02281
:101D6000116107E04FF0E021096921F004014FF013
:101D7000E0221161704700000000FA050CED00E060
:101D800000E400E080E100E080FFFF1F10B50446A2
:101D9000CC48844208D10121042000F02DFB002111
:101DA000042000F029FB46E0C748844208D1012105
:101DB000082000F021FB0021082000F01DFB3AE084
:101DC000C248844208D10121102000F015FB0021F7
:101DD000102000F011FB2EE0BD48844208D1012103
:101DE000202000F009FB0021202000F005FB22E06C
:101DF000B848844208D10121402000F0FDFA0021BA
:101E0000402000F0F9FA16E0B348844208D10121DD
:101E1000802000F0F1FA0021802000F0EDFA0AE0C5
:101E2000AE48844207D10121801500F0E5FA002177
:101E3000A01500F0E1FA10BD10B50121084600F030
:101E4000DBFA0021012000F0D7FA10BD2DE9F041A6
:101E5000024600250026002000230024002791F8D8
:101E600003C00CF00F0591F803C00CF0100CBCF18E
:101E7000000F03D091F802C04CEA050591F800C0AC
:101E8000BCF1000F31D0146800202BE04FF0010CA2
:101E90000CFA00F3B1F800C00CEA03069E4220D110
:101EA00083004FF00F0C0CFA03F7BC4305FA03FC58
:101EB0004CEA040491F803C0BCF1280F06D14FF09E
:101EC000010C0CFA00FCC2F814C00AE091F803C03F
:101ED000BCF1480F05D14FF0010C0CFA00FCC2F820
:101EE00010C0401C0828D1D31460B1F800C0BCF168
:101EF000FF0F34DD546800202EE000F1080C4FF095
:101F0000010808FA0CF3B1F800C00CEA03069E427F
:101F100021D183004FF00F0C0CFA03F7BC4305FAF4
:101F200003FC4CEA040491F803C0BCF1280F05D16E
:101F300000F1080C08FA0CF8C2F8148091F803C0FC
:101F4000BCF1480F07D100F1080C4FF0010808FA66
:101F50000CF8C2F81080401C0828CED35460BDE8AD
:101F6000F0814FF6FF710180022181700421C17060
:101F700070470246002093680B400BB1012000E03F
:101F8000002070470146886880B2704702460020F2
:101F9000D3680B400BB1012000E0002070470146E0
:101FA000C86880B2704701617047416170470AB1EB
:101FB000016100E041617047C16070474FF48032B9
:101FC0000A43826181618261826982697047024647
:101FD0000020434B18684FF68073184040EA021007
:101FE00008433F4B186070473E49C8617047F0B5E1
:101FF0000A46002300240021002500F00046B6F127
:10200000004F02D1364EF16901E0354E7168C0F3E0
:10201000034583B200F44016B6F5401F08D121F005
:1020200070612F4E766826F070662D4F7E6012E04C
:1020300000F48016B6F5801F06D1032606FA05F4D3
:10204000A14341F0706106E0460D360103FA06F641
:10205000B14341F0706122B1460D360103FA06F634
:10206000314300F00046B6F1004F02D11C4EF16141
:1020700001E01B4E7160F0BD30B500228B071C0FD4
:102080000F2303FA04F2164B08338C1053F8243054
:102090009343134C08348D1044F8253023468C109C
:1020A00053F824308C07240F00FA04F423430C4C1B
:1020B00008348D1044F8253030BD0A49DC31086001
:1020C0007047000000080140000C01400010014072
:1020D0000014014000180140001C01400020014094
:1020E0000000014000002042DF48006840F001008D
:1020F000DD49086008464068DC490840DA49486024
:1021000008460068DA490840D74908600846006870
:1021100020F4802008600846406820F4FE004860F3
:102120004FF41F0088607047CF49096821F480315F
:10213000CD4A11601146096821F480211160B0F583
:10214000803F03D0B0F5802F0ED106E0C649096864
:1021500041F48031C44A116007E0C349096841F481
:10216000A021C14A116000E000BF00BF704710B558
:1021700001460022002300204A11012A02D1BA4C54
:10218000236806E0022A02D1B74C236A01E0B64C6C
:10219000636A01F01F02012494401C400CB101202D
:1021A00000E0002010BD38B500200090002400257C
:1021B00000BF3120FFF7DBFF05460098401C009070
:1021C0000098B0F5A06F01D0002DF2D03120FFF7BC
:1021D000CEFF08B1012400E00024204638BD0146AE
:1021E0000020A14A106820F0F80040EAC100106009
:1021F0007047A04908607047024600209A4B586813
:1022000020F47C1042EA01031843974B5860704752
:1022100098490866704701460020934A506820F0AC
:1022200003000843506070478F48406800F00C007E
:102230007047014600208C4A506820F0F0000843A7
:102240005060704701460020874A506820F4E060E3
:1022500008435060704701460020834A506820F4CC
:10226000605040EAC1005060704729B17E4A527AFE
:1022700002437D4B5A7204E07B4A527A82437A4B86
:102280005A7270477B49D831086070470146002078
:10229000754A506820F44040084350607047002160
:1022A000714A20321170704A82F82010012802D041
:1022B00004280AD104E001216B4A2032117005E0A4
:1022C0000521694A2032117000E000BF00BF70474D
:1022D0006949086070476449096A0143624A1162AA
:1022E0007047654944390860704730B500210022C5
:1022F000002400235C4D6D6805F00C0121B1042918
:1023000005D0082923D105E05C4D056022E05B4D36
:1023100005601FE0544D6D6805F47012524D6D68F4
:1023200005F48034022505EB92421CB9544D554307
:1023300005600BE04C4D6D6805F400351DB1504D46
:102340005543056002E04D4D5543056002E04B4D9D
:10235000056000BF00BF444D6D6805F0F00109093C
:10236000484D6B5C0568DD4045603F4D6D6805F488
:10237000E061090A434D6B5C4568DD4085603A4D7C
:102380006D6805F46051C90A3E4D6B5C4568DD40DF
:10239000C560354D6D6805F44041890B3A4D6B5C65
:1023A000C568B5FBF3F5056130BD29B12E4A526908
:1023B00002432D4B5A6104E02B4A526982432A4B57
:1023C0005A61704729B1284A92690243264B9A61A3
:1023D00004E0254A92698243234B9A61704729B1F0
:1023E000214AD2690243204BDA6104E01E4AD269D5
:1023F00082431D4BDA61704729B11B4AD268024300
:10240000194BDA6004E0184AD2688243164BDA604E
:10241000704729B1144A12690243134B1A6104E050
:10242000114A12698243104B1A61704712494039B0
:10243000086070470F49C86470470B49C8717047FE
:102440000948406A40F08070074948627047014679
:102450000020054A92680A400AB1012000E00020ED
:102460007047014988727047001002400000FFF871
:10247000FFFFF6FE000042428004424200127A0052
:1024800000093D00340000204400002010B504463F
:10249000FB48844209D101218803FFF7ADFF0021E9
:1024A0004FF48040FFF7A8FF32E0F648844209D19C
:1024B00001214804FFF7ADFF00214FF40030FFF782
:1024C000A8FF25E0F048844209D101218804FFF7E4
:1024D000A0FF00214FF48020FFF79BFF18E0EB489E
:1024E000844209D10121C804FFF793FF00214FF472
:1024F0000020FFF78EFF0BE0E548844208D1012160
:102500000805FFF786FF00214FF48010FFF781FFD9
:1025100010BD2DE9F04786B005460E460024A246C0
:1025200000BFA1460027B08900B100BF2F462C8A0A
:102530004CF6FF700440F08804432C82AC894EF6C0
:10254000F3100440B088318908437189084304437B
:10255000AC81AC8A4FF6FF400440B0890443AC82A2
:1025600001A8FFF7C2FEC648874202D1DDF810A0DD
:1025700001E0DDF80CA0A88900F4004040B10AEBAE
:10258000CA0000EB0A1031684900B0FBF1F807E01F
:102590000AEBCA0000EB0A1031688900B0FBF1F8C1
:1025A0006420B8FBF0F004012009642101FB1089CC
:1025B000A88900F4004040B1322000EBC900B0FB14
:1025C000F1F000F00700044308E0322000EB0910AE
:1025D0006421B0FBF1F000F00F0004432C8106B041
:1025E000BDE8F0874FF41651016000218180C18061
:1025F00001810C21418100218181704710B5024683
:102600000020108A4FF2FF0318400B884C882343A8
:102610008C882343CC8823431843108210BD0021AB
:10262000018041808180C180704721B1828942F45C
:102630000052828104E082894DF6FF731A40828144
:102640007047F0B50346002400260025002040F620
:102650006A17B94200D100BF1846C1F3421401F015
:102660001F06012707FA06F5012C01D10C3004E002
:10267000022C01D1103000E014301AB107682F434A
:10268000076002E00768AF430760F0BD1AB1838AB4
:102690000B43838202E0838A8B4383827047028AE2
:1026A0004FF6F0731A400282028A0A430282704790
:1026B00082894FF2FF731A40828182890A438281A4
:1026C000704721B1828942F00202828104E082894E
:1026D0004FF6FD731A4082817047028A4FF6DF730E
:1026E0001A400282028A0A430282704721B1028A9A
:1026F00042F48042028204E0028A4BF6FF731A40E1
:1027000002827047C1F308028280704701468888C0
:10271000C0F308007047818941F001018181704751
:10272000028BD2B20283028B42EA012202837047FB
:10273000028B02F47F420283028B0A4302837047BA
:1027400021B1828A42F02002828204E0828A4FF61E
:10275000DF731A408282704721B1828A42F01002F0
:10276000828204E0828A4FF6EF731A4082827047B9
:1027700021B1828A42F00802828204E0828A4FF606
:10278000F7731A408282704721B1828942F4004275
:10279000828103E08289C2F30E028281704721B1F7
:1027A000828A42F40062828204E0828A4FF2FF73DE
:1027B0001A4082827047828A4FF6FB731A408282E7
:1027C000828A0A438282704721B1828A42F00202E1
:1027D000828204E0828A4FF6FD731A40828270473B
:1027E00002460020B1F5007F00D100BF13880B40E6
:1027F0000BB1012000E00020704701F40072B2F537
:10280000007F00D100BFCA430280704770B5024606
:10281000002400230025002040F66A16B14200D1B2
:1028200000BFC1F3421501F01F03012606FA03F3AE
:10283000012D02D19689334006E0022D02D1168A7D
:10284000334001E0968A33400C12012606FA04F464
:102850001688344013B10CB1012000E0002070BD97
:1028600010B50022002340F66A14A14200D100BF37
:102870000A1201249440A3B2DC43048010BD00007E
:10288000003801400044004000480040004C004037
:102890000050004010B50446FA48844208D1012196
:1028A0004015FFF7A9FD00216015FFF7A5FD17E012
:1028B000F548844208D101210015FFF79DFD002154
:1028C0002015FFF799FD0BE0F048844208D1012163
:1028D000C803FFF791FD00214FF40040FFF78CFD86
:1028E00010BD30B50246002000235068E84C20405F
:1028F0000D790C6844EA0524204350609068E54C4B
:102900002040D1E902542C434D7944EA4504204348
:102910009060D06A20F470000C7C641EE4B2234303
:1029200040EA0350D06230BD002101600171417165
:102930008160C16001210174704721B1826842F059
:102940000102826003E0826822F001028260704727
:1029500021B1826842F48072826003E0826822F4CE
:1029600080728260704710B50023CBB21AB1446800
:102970001C43446002E044689C43446010BD81688D
:1029800041F0080181607047014600208A6802F02A
:1029900008020AB1012000E000207047816841F080
:1029A000040181607047014600208A6802F0040239
:1029B0000AB1012000E00020704721B1826842F492
:1029C000A002826003E0826822F4A0028260704765
:1029D000014600208A6802F480020AB1012000E06A
:1029E0000020704710B50A4600210023416821F4F9
:1029F0006041531E41EA4331416010BD21B142683C
:102A000042F40062426003E0426822F400624260E5
:102A10007047F0B504460D4600200021092D11DD58
:102A2000E068A5F10A0606EB4607072606FA07F155
:102A30008843A5F10A0606EB460603FA06F10843A9
:102A4000E0600CE0206905EB4507072606FA07F170
:102A5000884305EB450603FA06F108432061072A7F
:102A60000FDA606B561E06EB86071F2606FA07F183
:102A70008843561E06EB860605FA06F10843606396
:102A800022E00D2A0FDA206BD61F06EB86071F26E1
:102A900006FA07F18843D61F06EB860605FA06F10B
:102AA0000843206310E0E06AA2F10D0606EB8607FA
:102AB0001F2606FA07F18843A2F10D0606EB8606EB
:102AC00005FA06F10843E062F0BD21B1826842F4E4
:102AD0008012826003E0826822F480128260704774
:102AE0000146C86C80B2704766484C300068704739
:102AF00021B1426842F48062426003E0426822F4FD
:102B000080624260704721B1426842F48052426064
:102B100003E0426822F48052426070470A46002176
:102B2000816821F4E04111438160704721B18268DE
:102B300042F40042826003E0826822F40042826034
:102B4000704721B1826842F40212826003E0826819
:102B500022F4021282607047014600208A6802F463
:102B600000120AB1012000E000207047F0B50446D1
:102B70001546002000220026092911DDE068A1F198
:102B80000A0707EB470C072707FA0CF29043A1F15D
:102B90000A0707EB470703FA07F21043E0600CE06F
:102BA000206901EB410C072707FA0CF2904301EB77
:102BB000410703FA07F210432061A06BC0F30156EE
:102BC000EF1C06F1010CA7EB0C0707EB870C1F2786
:102BD00007FA0CF29043EF1C06F1010CA7EB0C076F
:102BE00007EB870701FA07F21043A063F0BD10B5A9
:102BF0000A4600210023816B21F44011531E41EA53
:102C00000351816310BD08B5002300930090009B21
:102C10000B440093009B1A6008BD08B502460020D3
:102C20000090009201F12800009B18440090009849
:102C3000006880B208BD0A4600214168164B194061
:102C40001143416070474162826270470A46002129
:102C5000416821F01F0111434160704740B10949AB
:102C60000831096841F40001064A0832116007E0A2
:102C700004490831096821F40001024A0832116050
:102C8000704700000024014000280140003C014042
:102C9000FFFEF0FFFDF7F1FFFFFD3FFF02460020C2
:102CA00013680B400BB1012000E000207047CA43BD
:102CB0000260704770B502460020002300240B120A
:102CC0005568CEB205EA060415681D4015B10CB171
:102CD000012000E0002070BD00220A12D3430360EF
:102CE0007047000010B56FF00400FFF730F82E4871
:102CF00000682E49B0FBF1F02D49087008460078B5
:102D000000EB4001C1EBC0104FF6FF7101EAC000BB
:102D10002849088010BD0146254A12784A434FF0E1
:102D2000E0235A6100229A611A46126942F00102B8
:102D30001A6100BF4FF0E022106900F001021AB1E1
:102D400000F48032002AF5D04FF0E022126922F020
:102D500001024FF0E0231A6100229A617047014698
:102D6000144A12884A434FF0E0235A6100229A61C4
:102D70001A46126942F001021A6100BF4FF0E022C8
:102D8000106900F001021AB100F48032002AF5D077
:102D90004FF0E022126922F001024FF0E0231A61A5
:102DA00000229A61704700002000002000127A0083
:102DB000480000204A00002010B54FF4A060FEF744
:102DC00077FF10BD00BF704702E0C2B26B4B1A80A4
:102DD0006A4A121F128802F04002002AF5D070479A
:102DE00010B5C821664800F0C2FA00206549088085
:102DF00010BD10B586B00446012144F20400FFF76F
:102E0000E1FA4FF40070ADF8140003208DF81600BD
:102E100018208DF8170005A95B48FFF717F84FF445
:102E20008060ADF8140004208DF8170005A95648FD
:102E3000FFF70CF825208DF8000003208DF8010025
:102E40008DF8020001208DF803006846FEF735FF7B
:102E500001940020ADF80800ADF80A00ADF80C00B0
:102E6000ADF810000C20ADF80E0001A94348001F7A
:102E7000FFF74FFB012240F225514048001FFFF7AA
:102E8000E0FB01213D48001FFFF7CFFBFFF7A8FF44
:102E900006B010BD10B540F225513848001FFFF7AD
:102EA000B5FC00283AD03548001FFFF72FFCC4B20C
:102EB000242C02D100203349088032480188008840
:102EC000401C304A10802E484454007824281ED1DB
:102ED0002B4800794D281AD129484079432816D12A
:102EE0000A2C14D15021294800F041FA25480288C3
:102EF0002349264800F0F6F90120244981F85000C2
:102F0000002020490880C8211D4800F030FA1D48E3
:102F10000088C82802DBC8201A49088010BD10B5F7
:102F200004462146164800F0CBF908B1012010BD37
:102F30000020FCE710B50020144981F8500081F80A
:102F4000510081F878005021104800F010FA0F4825
:102F50005230002101604160018181720B300160BB
:102F60004160018181725D38A0F868106A300160AB
:102F7000416081606A38A0F8761010BD04380140C5
:102F8000B50500204E000020000801403C0500204F
:102F900000B585B001214802FFF714FA4FF4004054
:102FA000FFF774F90020009003904FF46020029026
:102FB00000208DF805008DF8040001208DF8100028
:102FC00069461948FFF78DFC01211748FFF7B5FC4A
:102FD0001548FFF7D4FC00BF1348FFF7D5FC0128C4
:102FE000FAD01148FFF7DAFC00BF0F48FFF7DBFC0F
:102FF0000128FAD005B000BD70B504460D462B4639
:10300000012221460848FFF704FD01210648FFF789
:10301000D4FC00BF02210448FFF740FE0028F9D08D
:103020000148FFF75DFD70BD0024014070470000BE
:103030000FB4044910B503AA029800F0EDFA10BCD1
:103040005DF814FB500000201CB50C46064B7B4479
:1030500069460090204600F0C6FA04460020694602
:1030600000F0D4FA20461CBDBB0500000FB4044993
:1030700010B503AA029800F0CFFA10BC5DF814FB5B
:10308000500000202DE9F041064600241068752903
:10309000314616A510D000F0F8F9002802DA4042B7
:1030A00013A507E031688A0701D512A502E0490798
:1030B00004D511A5012401E000F0F0F900210A2255
:1030C00006F1240709E0B0FBF2FCB0FBF2F302FBCF
:1030D0001C00303078541846491C0028F3D1234690
:1030E0002A463046BDE8F04100F00ABA0000000070
:1030F0002D0000002B000000200000002DE9F05FF3
:10310000894604464FF0000ADFF874B1FB44C0F86A
:1031100020A02046E1688847002874D0252806D0E2
:10312000D4E901219047206A401C2062F1E7002683
:103130005F462046E16888472028054607DB312D99
:1031400005D2781910F8200C08B10643F1E7B00752
:1031500001D526F00406C4F81CA00027C4F818A066
:103160002A2D09D0284602F08EFC38B304EB8708DC
:10317000303DC8F8185019E059F8041B204604EBFC
:1031800087029161E1688847012F054618D1E069FF
:10319000002820DA26F020061DE0D8F8180000EB01
:1031A000800005EB40003038C8F818002046E16880
:1031B0008847054602F067FC0028EED1012F0AD0AF
:1031C0002E2D08D12046E16888477F1C0546022F36
:1031D00046F02006C4DBA069002803DA404246F02E
:1031E0000106A061F00701D026F010066C2D0BD06F
:1031F000682D09D04C2D39D06A2D35D0742D35D09D
:103200007A2D33D016E038E0E1682F462046884713
:10321000B842054609D16C2F26D04FF48060E16892
:10322000064320468847054604E06C2F1AD04FF429
:10323000807006430DB3A5F14100192802D820354E
:1032400046F400664A462946204626604E46FCF76C
:1032500087FF80B101280BD0F61D26F0070000F192
:10326000080956E74020E4E78020D8E70020D6E7A9
:1032700006F104094DE7284652E7206ABDE8F09FB1
:10328000405100000FB400B58DB010A90990009115
:103290000B904FF0FF300A9000200C9006487844C5
:1032A0000690064878446A4607900F9909A800F0EE
:1032B00065FD0DB05DF814FBFB0A0000130B000068
:1032C00030B505460B462A4613F8014B12F8010BA0
:1032D00008B1A042F8D01CB1002802D06D1CF1E763
:1032E000284630BD032A40F2308010F0030C00F075
:1032F000158011F8013BBCF1020F624498BF11F830
:1033000001CB00F8013B38BF11F8013BA2F10402E8
:1033100098BF00F801CB38BF00F8013B11F0030360
:1033200000F05C85083AC0F0088051F8043B083A88
:1033300051F804CBA0E80810F5E7121D5CBF51F866
:10334000043B40F8043BAFF30080D20724BF11F8E0
:10335000013B11F801CB48BF11F8012B24BF00F845
:10336000013B00F801CB48BF00F8012B70474FF03C
:1033700000020429C0F0128010F0030C00F06285F6
:10338000CCF1040CBCF1020F18BF00F8012BA8BF50
:1033900020F8022BA1EB0C0100F054BD5FEAC17CC8
:1033A00024BF00F8012B00F8012B48BF00F8012BC7
:1033B000704700004FF0013C50F8042B51F8043BDB
:1033C0009A4221D1A2EB0C03934313EACC1317D1F9
:1033D00050F8042B51F8043B9A4215D1A2EB0C0390
:1033E000934313EACC130BD150F8042B51F8043B50
:1033F0009A4209D1A2EB0C03934313EACC13DBD01E
:103400004FF00000704700BFD01A01BAB1FA81F145
:1034100001F0180122FA01F0CB40C1F12001DBB22A
:10342000C0B2C01A2CFA01F3D11A914311EAC311A8
:10343000E6D17047704770477047704770B50446D3
:1034400085690068C10601D5302600E02026C00746
:1034500007D070BDD4E9012130469047206A401C56
:1034600020626D1EF6D570BD70B504468569007882
:10347000C00707D170BDD4E9012120209047206A00
:10348000401C20626D1EF6D570BD09684A0501D545
:1034900040B27047C905FCD500B2704709684A05BB
:1034A00001D5C0B27047C905FCD580B2704770B570
:1034B0000C460546012A05D02878800600D5EA6921
:1034C000002302E0012305E05B1C934202D2E05C92
:1034D0000028F9D1A869E618C01AA861286A18441A
:1034E00028622846FFF7AAFF04E0D5E9012114F875
:1034F000010B9047B442F8D32846FFF7B5FF70BDE3
:103500002DE9F0470D4699469246044600F12408FD
:103510000168880604D5E06921F01001216000E00F
:103520000120A84201DD471B00E00027A1697A19AC
:1035300002EB0900081AA0612078C00602D42046D8
:10354000FFF77CFF002608E0D4E901211AF8060005
:103550009047206A401C761C20624E45F4DB2078A0
:10356000C0060AD52046FFF769FF06E0D4E901212D
:1035700030209047206A401C2062381EA7F10107C6
:10358000F4DC07E0D4E9012118F805009047206A2F
:10359000401C2062281EA5F10105F3DC2046FFF740
:1035A00063FF2078000602D50220BDE8F0870120E5
:1035B000FBE711680268006A530501D508700AE04C
:1035C000D30501D5088006E0130603D5C217C1E96B
:1035D000000200E0086001207047000001694A1CF9
:1035E00002610878704700B58FB0CDE90131002144
:1035F000059105497944CDE9031011466846FFF766
:103600007DFD0FB000BD0000E5FFFFFF0A6802F876
:10361000010B0A6070470000074B70B50D467B44F4
:10362000FFF7E1FF0446284601F06EFA10B14FF0B3
:10363000FF3070BD204670BDA7F7FFFF2DE9FF5F8B
:1036400015468A460446DFF8AC80F8440027D8E9DE
:1036500000103E46CDE9001010E03AF816106A4618
:1036600002A801F055FA411C07D02178890603D53C
:10367000E269391891420DD80744761C20788006FB
:1036800002D5E069B84205DDAE42E6DB3AF8160045
:103690000028E2D1A069C01BA0612046FFF7CEFE42
:1036A000D8E90010CDE90010002017E03AF8181012
:1036B0006A4602A801F02CFAB0F1FF3F81460BD018
:1036C00000250DF1080B05E0D4E901211BF80500E8
:1036D00090476D1C4D45F7D308F10100B04280467C
:1036E000E4DB206A384420622046FFF7BDFEBDE8D7
:1036F000FF9F0000164C00002DE9F0418046D21DCE
:1037000022F007020025D2E90002F52915A614D0FF
:10371000011E72F1000106DA0023D0EB030063EB17
:10372000020211A608E0D8F800108B0701D50FA6F9
:1037300002E0490701D50EA601251146002408F133
:10374000240704E000F0ACFB30323A55641C50EA28
:103750000102F7D12B46324621464046BDE8F041F2
:10376000FFF7CEBE000000002D0000002B0000007F
:103770002000000030B4002100F1240408E002F031
:103780000705D208303542EA4372DB086554491C0C
:1037900052EA0305F3D10468002310A2250707D5D8
:1037A000A40600D421B1C46901230DA2641EC46122
:1037B00030BCFFF7A5BE10B5044621461068FFF7E0
:1037C0006DFE02462046BDE810400023D2E7D21D20
:1037D00022F00701D1E90023CCE70000000000003F
:1037E00030000000F0B40D460188090502D5214CD7
:1037F0007C4402E01F4C7C440E34002100F124067E
:1038000008E002F00F071209E75D42EA03721B09A4
:103810007754491C52EA0307F3D1027800231207B8
:1038200004D5702D06D009B1022311342246F0BC14
:10383000FFF766BE01231034F8E770B504460D4665
:1038400021461068FFF72AFE024629462046BDE8B9
:1038500070400023C6E7D21D22F00703D3E90023FE
:10386000C0E70368126843F0200303600823C361C4
:103870000023B7E7784A00002DE9FF4F06468BB0DA
:103880000878FF2806D0491C2D2805D000244FF0C9
:10389000000908E000200CE00124F8E709EB8903A7
:1038A000491C00EB43090878FF28F7D114B1C9F18E
:1038B00000008146107800252C46AA4629462D286E
:1038C00001D02B2804D1521C2D2813D00020824671
:1038D0008B461078FF280FD04FF0000C0A21521CA5
:1038E000A5FB017804FB018105FB0C11C5194BEB0D
:1038F0000104EEE70120EAE7002108464FF000004E
:10390000BAF1000F02D000EB80004008C0F38157ED
:10391000012F01DD4FF0FF370E9955EA040009EB46
:1039200001080BD04FF0020918F5FA7F16DA4FEABA
:10393000CA70002F706008DD012007E04FEACA70EE
:10394000C6E900B00FB0BDE8F08F0020306000F095
:10395000A3FAC0F800901821084616E0B8F5FA7FDF
:1039600018DD002F02DAF748784401E0F648784481
:10397000D0E90010C6E9001040EACA70706000F09B
:103980008BFAC0F80090142108460FB0BDE8F04F44
:1039900002F0C1BC002108464FF00000B8F1000160
:1039A000099002DAC7F1000200E03A4601DAC8F1F4
:1039B000000106A801F036F806AB93E8070003AB58
:1039C00083E8070044F23E005BEA04010090584699
:1039D00004D144F21E012C465D460091210C0904DD
:1039E000014306D10099240444EA15442D041039FA
:1039F000009104F07F41014306D10099240244EA7A
:103A000015642D020839009104F07041014306D17C
:103A10000099240144EA15742D01091F009104F056
:103A20004041014306D10099A40044EA9574AD00D9
:103A3000891E009104F00041084304D100986D19DB
:103A40006441401E00904FF001033A466846B8F1C9
:103A5000000FCDE9014503A902DD01F048FE01E0B8
:103A600001F01BFEBAF1000F04460D4601D084F0B0
:103A70000044002108464FF00000099940F2FF770A
:103A8000484010F00C0F07D124F00040284303D029
:103A9000C4F30A50B84212D100F0FEF9C0F8009009
:103AA000C4F30A50B8420AD1A8487844D0E90010BB
:103AB000C6E9001004F000410843706042E7C6E91F
:103AC00000543FE72DE9FF4F1F464FF0000A4FF02B
:103AD000FF38454691B0D7E90146CDF83CA000F04B
:103AE000D7F9C0680168405C1090B96912986D1CE4
:103AF0008847396A814688470028F6D1B9F1FF3FE7
:103B00000AD0002E24F4D06411DDB9F12B0F08D0B7
:103B1000B9F12D0F0BD102E0404615B013E744F484
:103B20008064B96912986D1C8847761E81466005CD
:103B300004A901D52D2000E02B20002E01F1010B5E
:103B40000DF130088DF810003FDDB9F1690F08D094
:103B5000B9F1490F05D0B9F16E0F02D0B9F14E0F8E
:103B60001CD13B4601A8009580E85002DDE9121205
:103B70006FF0020002F03AFCC11CCED10EE0B96930
:103B800012986D1C884781461398761E44F4007481
:103B900005600F98401C002E0F9016DDB9F1300F14
:103BA000EDD0B9F1780F02D0B9F1580F0DD10F98BF
:103BB00001280AD13B46CDE90054DDE91212001F6D
:103BC000029602F011FCC11CA7D1109989453ED183
:103BD00044F0800406E01399681CAAF1010A44F439
:103BE00000740860B9696D1C1298761E88473028E9
:103BF0008146F0D02BE01099894505D1200603D4E9
:103C0000761E44F0800418E0484601F03CFF08B3FB
:103C1000761E0DF123018B4544F4007408D2A9F1FE
:103C200030000BF8010B200607D5AAF1010003E0D4
:103C3000200602D40AF101008246A00502D513999C
:103C4000681C0860B96912986D1C88478146002E6F
:103C5000D1DC53E0002E51DDB9F1650F02D0B9F18E
:103C6000450F4BD1A00549D5B9696D1C1298761E38
:103C700024F440748847002E81460CDD2B2804D0A4
:103C8000B9F12D0F07D144F48074B96912986D1CF5
:103C90008847761E8146E00501D52D2100E02B21C5
:103CA00008F8011BCDF8008021E0761E0DF13901E6
:103CB000884544F400740CD2A9F1300010F0FF00E4
:103CC00088F8000002D10099884509D908F1010857
:103CD00006E0E00501D51E4801E042F20F70824681
:103CE000B96912986D1C8847814613980560002EAB
:103CF00004DD484601F0C7FE0028D6D1F9691298C4
:103D00008847FF2053468BF8000088F80000002009
:103D10000A900B9004AA0CA90AA8FFF7ADFDA00514
:103D200002D46FF00100F8E614F0240F12D0E0077F
:103D30001CD13868DDE90A12031D3B600068C0E948
:103D4000001213E0EC4A0000DE4A0000A249000025
:103D5000F1D8FFFF0AA9684601F024FEE00705D16B
:103D60003868009A011D3960006802602846D4E670
:103D7000026811441378016018467047D160054904
:103D8000794451610449794411620021116111465D
:103D900000F08EBCEDFFFFFFA1010000426842B1C0
:103DA000016811F8013B23B1521EC0E90012184608
:103DB00070470121C160881E704742685AB1C368CC
:103DC000016843B983688B4205D0491E521CC0E983
:103DD0000012002070474FF0FF30704710B5203AB6
:103DE000C0F00B80B1E81850203AA0E81850B1E8B4
:103DF0001850A0E81850BFF4F5AF5FEA027C24BF6A
:103E0000B1E81850A0E8185044BF18C918C0BDE860
:103E100010405FEA827C24BF51F8043B40F8043B29
:103E200008BF7047D20728BF31F8023B48BF11F8DE
:103E3000012B28BF20F8023B48BF00F8012B704738
:103E40004FF0000200B5134694469646203922BF33
:103E5000A0E80C50A0E80C50B1F12001BFF4F7AF7E
:103E6000090728BFA0E80C5048BF0CC05DF804EB60
:103E7000890028BF40F8042B08BF704748BF20F8CE
:103E8000022B11F0804F18BF00F8012B7047000083
:103E900000487047A00600200048704780060020B8
:103EA00030B5B0F10A024FEA900E71F100034EEA0C
:103EB000817EB0EB0E0061EB91014FEA101E4EEADD
:103EC000017E10EB0E0041EB11114FEA102E4EEA6D
:103ED000016E10EB0E0041EB11214FEA104E4EEA3D
:103EE000014E10EB0E0041EB1141401841F1000171
:103EF0004FEAD00040EA41704FEAD10110EB800553
:103F00004FEA810444EA907444EB01046D1944EBD8
:103F10000404521BA3414FF0000348BF0A3200D5EE
:103F200030BD401C41F1000130BD10B5044600F029
:103F300039FE0068005D00F0010010BD70472DE9FA
:103F4000FF4F0C461E464FF0FF378BB0D2E9000101
:103F5000DDF860800A908A46C1F30A5505B93D46EE
:103F6000002108464FF00000BAF1000F00F44000B5
:103F700005DA00EB80004FF4400101EA50004FEAFF
:103F80009059B9F1010F00DDB9460A9850EA4A008C
:103F90000ED044F61050A5F2FF3545432F14B8F16A
:103FA000000F1ED07542291E1EDDC9F100021CE063
:103FB000B8F1010F4FF0000001D0302103E0F243CF
:103FC00005E02154401CB042FBDB304600220021BA
:103FD00021540B99C1F80880C1E900200FB0BDE859
:103FE000F08FBD1B6D1CDEE74A4600DA694206A869
:103FF00000F018FD06AB93E8070003AB83E8070069
:1040000050460A9901F076F88DE80700A0F50050B7
:104010001F3800900398002D0ADD42F21F014A4626
:104020000844002303A90390684601F021FB09E03E
:10403000A0F500504A461F38002303A903906846A4
:1040400001F040FB8DE807000004000C03D04FF0A6
:10405000FF30410800E01046B8F1000F03D0002205
:10406000009215461EE0751E05D4FFF719FF303289
:1040700062556D1EF9D5B3460122084302D00022D5
:104080007F1C04E02078302801D100227F1E002A06
:10409000099784D01DE0112D07DAFFF701FF3032B8
:1040A00062556D1C50EA0102F5D1084302D0009818
:1040B000C8B10EE00021681E05E0235C625C635419
:1040C0002254401E491C8142F7DBAB46A81B401E10
:1040D0000990002004F80B000B98099AC0F808809A
:1040E000C0E9002B7AE711264FF0000857E72DE9C9
:1040F000F04F88460446D21D22F0070191B0D1E965
:104100000001CDE90A0101F029FC02460B98C00F1D
:1041100001D02D2007E02068810701D52B2002E087
:10412000202101EAC000032A099001D0072A05DBFB
:1041300003464146204600F049FD0BE12078800609
:1041400001D5E06900E00620B8F1650F814606D090
:10415000B8F1660F18D0B8F1670F70D131E00020C8
:10416000B9F1110F009001DB112301E009F1010306
:104170000AAA01A90CA8FFF7E2FEDDE90C700026EF
:1041800009F10105834647E001204B4600904FF0BE
:1041900000470AAA01A90CA8FFF7D1FEDDE90DB07E
:1041A0000C995D46002610B909F101000D18B9EB14
:1041B000050003D4C0F1FF3609F10105A5EB0900A4
:1041C0002BE0B9F1010F01DA4FF001090020B9F13C
:1041D000110F0090484601DD112300E003460AAAB2
:1041E00001A90CA8FFF7ABFEDDE90C704D460026D7
:1041F0008346207800070AD4AB4500DA5D4601A863
:10420000012D04DD411911F8011C302907D04F455B
:1042100002DA17F1040F04DA012082460FE06D1E66
:10422000EEE7002F02DCED1B3E4403E0781CA842C1
:1042300000DD7D1CB81B00F1010A4FF0004720781B
:10424000000703D4AA4501DB4FF0FF3A0021B7F184
:10425000004F0DF143088DF8431024D002202B238A
:10426000002F01DA7F422D230A21021EA0F1010056
:1042700000DC5FB197FBF1FC97FBF1F201FB1C7CCA
:1042800017460CF1300C08F801CDEEE7A8F101005B
:1042900003702188090501D5452100E06521A0F1C1
:1042A000010800F8011C09980FA9A1EB0807FF1DE0
:1042B00000B10120411901EBEA70A1693844081AE4
:1042C000401EA0612078C00602D42046FFF7B6F851
:1042D000099828B1D4E901219047206A401C206246
:1042E0002078C00622D52046FFF7A8F81EE0002E51
:1042F00004DBB34502DD01A8805D00E03020D4E995
:1043000001219047206A401C2062761CAAF101001E
:104310005FEA000A0AD1FFF7BBFDC0680168405C94
:10432000D4E901219047206A401C2062281EA5F193
:104330000105DCDC07E0D4E9012118F8010B904706
:10434000206A401C2062381EA7F10107F3DC2046DA
:10435000FFF78AF8032011B041E600002DE9F04F85
:1043600004460D46D21D22F0070089B0D0E900971F
:104370004846394601F0F2FA0246F80F01D02D23E3
:1043800007E02068810701D52B2302E0202101EA04
:10439000C0038DF820300BB1012000E00020032A7B
:1043A000824601D0072A04DB2946204600F00EFC95
:1043B0003FE12078800601D40D2500E0E569C7F3D0
:1043C0000A560D2D49DA00214FEA175B08464FF0D7
:1043D0000000002F00F4400007DA00EB80004FF4EB
:1043E000400100EBD07001EA60008115012901DD78
:1043F0004FF0FF3100224FEA850CBCF1180F06D3B5
:104400001346ACF118004FF08052C24003E04FF465
:10441000801323FA0CF30CF10C0CBCF1200F04D325
:10442000ACF1200C09FA0CF001E007FA0CF00029BD
:104430004FF0004801DD18B90FE00ED140450CD314
:1044400019EB02095F4121B9404502D19F4329EA96
:104450000209BBEB175F00D0761C2088000502D54F
:104460007B48784402E07A487844193808AA302317
:1044700002F80A30037C0AF10101002E0AF1020A57
:1044800053546A4602DC4FF0300101E04FF0310135
:104490004FF001088DF8001002D0A6F2FF3603E0BD
:1044A00059EA470100D06B4E002D02DC2178090744
:1044B00004D54FF002082E218DF80110C4460021CA
:1044C0000BE0C7F303433F01C35C491C6D1E02F8B8
:1044D0000830052908F1010801DA002DF1DC00217E
:1044E0000CE000EB1973491C1B786D1E082902F8BB
:1044F00008304FEA091908F1010801DA002DF0DC53
:1045000021688B0602D516E0A8F10108E04505DD1B
:1045100002EB080313F8013C302BF5D0B8F1000F83
:1045200009DD02EB080313F8013C2E2B03D1090728
:1045300001D4A8F10108002D05DD3E2102F8081084
:104540006D1E08F10108407C002E02F8080008F1F9
:10455000010804DA2D20764202F8080002E02B2040
:1045600002F808000A214FF47A70864208F1010827
:104570000BDB96FBF0F3303302F8083096FBF0F3D8
:1045800008F1010800FB136601E0642E0CDB6420D7
:1045900096FBF0F3303302F8083096FBF0F308F1A5
:1045A000010800FB136601E00A2E06DB96FBF1F022
:1045B000303002F8080008F1010896FBF1F001FB29
:1045C0001060303002F80800A16908F1010808EB1A
:1045D000050202EB0A00081AA0612078C00602D486
:1045E0002046FEF72BFF216A08AE01EB0A0020628D
:1045F00004E0D4E9012116F8010B9047BAF1010A51
:10460000F7D22078C00602D52046FEF717FF6E4687
:1046100009E016F8010B3E280FD0D4E9012190479C
:10462000206A401C2062B8F10108F2D22046FEF751
:104630001BFF09B00320BDE8F08F206A28442062E8
:1046400003E0D4E90121302090476D1EEBD3F8E759
:10465000413E000002FCFFFF10B5436913B1AFF308
:10466000008001E0FEF723FF012010BD127800F169
:1046700024010A7000224A700122EDE711684FF010
:10468000FF32E9E710B5436913B1AFF3008001E0F1
:10469000FEF7D4FF012010BD128800F124018284AE
:1046A0000022C2840122EDE711684FF0FF32E9E7F2
:1046B0002DE9F34F4FF0000A0C4656468DB001200D
:1046C0000C9001F10C000B9062690B98012190474E
:1046D000051E2DD0252D2CD0216A8847C0B16269D6
:1046E0000B9801219047216A88470028F7D1626919
:1046F000411E0B98904700E0761CA1690D988847F1
:10470000216A88470028F7D1E1690D988847DBE7DF
:10471000A1690D988847A842074601D1761CD3E7C6
:10472000E1690D9888477F1C02D1BAF1000F6FD064
:104730006BE162690B9800273D46394690472A286D
:1047400004D162690B98012190470125DFF8D082DE
:1047500062690B9801219047A0F130010A290AD221
:104760004745E5DC07EB870100EB4107303FDFD42D
:1047700045F01005ECE7E90601D46FF000476C281E
:104780000AD04C2814D0682815D06A280DD0742877
:104790001CD07A281AD01DE062690B98012190473D
:1047A0006C2802D045F0040514E045F002050DE048
:1047B00045F020050AE062690B98012190476828BE
:1047C00002D045F0080505E045F4006562690B98E4
:1047D00001219047C4E9015765283DD019DC5828CC
:1047E0007AD00CDC452837D004DC252826D0412897
:1047F0009ED131E046282FD0472899D12CE05B2864
:1048000077D0612828D063287CD0642823D15AE04F
:10481000F6E06F2848D008DC66281DD067281BD03A
:10482000692821D06E2816D127E0702845D073283A
:1048300068D0752847D078280DD14DE0A1690D9832
:104840008847252805463FF469AFE1690D988847F8
:104850006D1C3FF46AAFD8E00D9923466A466FF0AD
:10486000010001F0BFFDC5E045F0400023464FF0D8
:1048700000026060A80736D43EE0E8077FF447AF47
:104880002068011D21600068290501D506701BE71D
:10489000290701D5068017E7A90703D5F117C0E955
:1048A000006111E706600FE745F0400023464FF036
:1048B00008026060A80716D41EE040F60E0125EA43
:1048C0000100606016E045F0400023464FF00A0208
:1048D0006060A80707D40FE045F040006060A807BB
:1048E00008D5234610220D996FF00100AFF3008028
:1048F00080E007E0102223460D996FF00100AFF32E
:10490000008077E04FF0000963284F46C8464B46C9
:10491000CB4602D05B2806D038E0E80601D401205F
:10492000A060012732E06269D4F80CB00B98012135
:1049300090475E2807D14FF0010949466269D4F8D3
:104940000CB00B989047216939B900210A4603AB96
:1049500043F82120491C0829FADBD8B3216949B35F
:1049600008F1010862690B98012190475D28F4D194
:10497000B9F1000F09D0002003A951F82020D2433B
:1049800041F82020401C0828F7DB03AB20690028F1
:1049900020794FEA40701ED05B462246CDF8008059
:1049A000CDE901970D9900286FF0010020DAAFF3EF
:1049B00000801FE0C11703AA00EBD1614B1121F069
:1049C0001F0102EB8302411A136801208840034350
:1049D0001360C7E719E00D99224600286FF0010027
:1049E000009702DAAFF3008004E0AFF3008001E04B
:1049F000AFF3008000280ADA401C06D10C9820B1E1
:104A00004FF0FF300FB0BDE8F08F5046FAE7E907EE
:104A100001D10AF1010A064400200C9054E600007E
:104A2000CCCCCC0C2DE9F047814616468AB03548EF
:104A300078440DC88DE80D0032487844801C03ACE2
:104A40000DC884E80D0041F69B300844372190FBE7
:104A5000F1F290FBF1F5A5F1800501FB12041B3C7E
:104A600002D56442012000E00020DFF898A08046D3
:104A70000027FA44AAF1BE0A0EE0E0070AD0324647
:104A8000684607EB470101230AEB810100F01AFE9B
:104A90008DE8070064107F1C002CEED1194F7F4475
:104AA000AE3F19E0E80715D007EB04100DF1180A26
:104AB00090E80E008AE80E00C068F04201D1981913
:104AC00008903246012306A903A800F0FBFD03ABC2
:104AD00083E807006D10641C002DE3D14FF0010343
:104AE00032466946B8F1000F03A802D000F0C0FDBD
:104AF00001E000F0E7FDC9E90001C9F808200AB0AB
:104B0000BDE8F08704390000007B00F080007047AA
:104B100070B516460C46054600F044F8036893F855
:104B20000101012806D0FF2C0FD8185D68B10120C3
:104B30002C7070BDD3F807013246214603F20713EB
:104B400003442846BDE8704018474FF0FF3070BD61
:104B500000487047800600207546FFF7F9FFAE4613
:104B600005006946534620F00700854618B020B579
:104B7000FDF78CF8BDE820404FF000064FF000072D
:104B80004FF000084FF0000B21F00701AC46ACE8F5
:104B9000C009ACE8C009ACE8C009ACE8C0098D4662
:104BA0007047000010B5FFF773F9001D10BD00BF7E
:104BB000DD0F000010B5FFF76FF9006810BD10B5EC
:104BC0000446FFF769F9046010BD00002DE9F041CB
:104BD0001F46044603260168072A01F4006004DB2F
:104BE00008B116A505E016A503E008B115A500E07B
:104BF00015A521F010002060A069C01EA0610FB1B2
:104C0000401EA0612046FEF719FC4FB1D4E90121F6
:104C100038469047206A401C2062C01C206206E093
:104C2000206AFAE7D4E9012115F8010B9047761EB6
:104C3000F8D22046FEF718FCBDE8F0814E414E0048
:104C40006E616E00494E4600696E66002DE9FF4FA9
:104C50001F464FF03C0987B04FF00042DDE91410C9
:104C600001F10108DDF858A002EA4050039000204D
:104C700005908346054604460490B969461E089887
:104C80008847AAF1010A0290BAF1000F3BDD0298B1
:104C90002E2815D0102100F01FFA00282EDB4FF02F
:104CA000010B0599014317D0B9F1000F0BDB4A4600
:104CB000C11700F0FEF905430C43A9F1040905E012
:104CC000012004900BE008B145F00105012005909A
:104CD000049820B9361D02E0049800B1361FB96966
:104CE000089808F101088847BBF1000FAAF1010AF2
:104CF0000290C9D00999C1F80080C5E702987028D0
:104D000008D0502806D0F96908988847BBF1000FF1
:104D100014D04FE0002002900120BBF1000F04905E
:104D200009D0B969089808F101088847AAF1010972
:104D3000B9F1000F07DCF969089888476FF00100A6
:104D40000BB0BDE8F08F2B2804D02D280CD14FF0EC
:104D5000FF300490B969089808F101088847A9F163
:104D60000109B9F1000FE6DD411CE4D00A2100F091
:104D7000B3F90028DFDB029908F1010801EB81019A
:104D800000EB41000290B969089888470A2100F0B9
:104D9000A3F9099AA9F10109B9F1000FC2F800803D
:104DA00001DD0028E7DAF969089888470499029834
:104DB00000FB016655EA040004D004F040410900FC
:104DC00002D006E0039898E0A40044EA9574AD0090
:104DD000B61E04F00041080002D16D196441761E30
:104DE000159810F0240F03D04FF00B095C4803E036
:104DF0004FF028096FF07D008246564507DAAAEB8E
:104E000006018944B9F1410F01DD4FF0410901204C
:104E10000021A9F1010200F04CF9024628400B469E
:104E20002140084301D0012100E00021501E0291E1
:104E300043F1FF3128402140084301D0012000E028
:104E400000200299834651EA0B014FD00021084609
:104E50004FF00000039900F4400039B100EB8000EE
:104E60004FF4400100EBD07001EA6000801501288A
:104E700002DD4FF0FF3000E013D0401C36D0029826
:104E800060B3BBF1000F0CD14A460120002100F0B5
:104E900010F928402140084301D0012000E0002003
:104EA000E0B101204A46002100F003F90346401911
:104EB0000A4661412D1A8C4111D3B9F1400F09DD29
:104EC000159810F0240F02D0AAF1340603E0AAF1DD
:104ED000170600E0761C00254FF0004406E05B1E3C
:104EE00042F1FF3220EA030521EA0204CAF101007F
:104EF000B04206DA1B490398084301900020009055
:104F00000EE0039AC4F3D321E80A0A43164940EAA3
:104F100044500A433146CDE90002684600F0A8FD3E
:104F2000159810F0240F0BD01598C00715D13868CC
:104F3000DDE90012031D3B600068C0E900120CE0CF
:104F400002A8694600F02EFD1598C00705D1386803
:104F5000029A011D3960006802604046F0E60000D8
:104F600002FCFFFF0000F07F0000F03F2DE9FF4F43
:104F700092461D4685B04FF00041DDE9124BDDE958
:104F800014727F1E01EA4B50414940F0FF4940EA4C
:104F90000108002122F020004928049102D04E2867
:104FA00028D04CE03BA0012607C88DE80700A9697E
:104FB0000698641C88477F1E014606D41DF806002B
:104FC00018B121F0200181420BD0E9690698884789
:104FD000032E34D0082E32D06FF0010009B0BDE8A6
:104FE000F08F761C032E01D0082EE0D1601CCAF889
:104FF0000000DCE7A9690698641C88477F1E2AD454
:1050000020F02000412826D1A9690698641C884711
:105010007F1E20D420F020004E281CD1A9690698BC
:10502000641C88477F1E48F4002849F48009CAF8A8
:10503000004001D4282806D0E969069888475FEA2D
:10504000CB7012D022E0A9690698641C88477F1EA5
:1050500001D4002803DAE96906988847BCE72928C3
:10506000F1D1641CCAF80040E9E71BF0240F07D017
:1050700028680499031D2B600068C0E9001805E04A
:105080002868021D2A600068C0F800902046A5E745
:105090000000F07F494E46494E4954590000000037
:1050A00010B50446AFF300802046BDE81040FBF782
:1050B000BAB8B2F120030AD5C2F1200301FA02F115
:1050C00020FA03F300FA02F041EA0301704700FA04
:1050D00003F14FF0000070473A2800D2303820F03A
:1050E0002002412A01D3A2F13700884201D34FF0B8
:1050F000FF3070475FEA400C08BF91F0000F4FEAA5
:105100008C234FEAC12243EA51514FEA1C5018BF89
:1051100000F5F0404FEA300018BF41F000415FEA6F
:105120006C5C00F02980BCF1FF3F08BF40F080407C
:105130007047130C06BF12044FF0100C4FF0000C18
:10514000130E04BF12020CF1080C130F04BF12015E
:105150000CF1040C930F04BF92000CF1020CD30F5E
:1051600004BF52000CF1010C11464FF00002A0F1F7
:105170001F00A0EB0C00704711F0004F08BF7047F4
:1051800031F000413FF4D5AF0B0C06BF09044FF0DE
:10519000100C4FF0000C0B0E04BF09020CF1080CB0
:1051A0000B0F04BF09010CF1040C8B0F04BF890025
:1051B0000CF1020CCB0F04BF49000CF1010CCCF137
:1051C0002003A0EB0C0022FA03F302FA0CF241EAEE
:1051D000030100F10100704720F07F4C80EA0300DA
:1051E00023F07F47ACEB070303F57C5300F000404E
:1051F00003F1FF032DE980494FEA154B09B44FEA4B
:10520000144325EA0B4E24EA03480FF2042606EB6A
:10521000132749083E785FEA320203FB0667C7F5A9
:10522000000707FB06F64FEA54374FEAD64606F169
:10523000020607FB066CCCF1005C4FEA1C472CEA27
:10524000074C07FB06F40CFB06F504EB15464FEA8A
:10525000961634BF00204FF000404FEAD13706FBCE
:1052600007FC4FEA1C4C0CFB0BF7D21B03FB0CF7A3
:1052700061EB07010CFB0EF7B0EB074072EB174236
:105280000CFB08F734BFA2EB0742B2EB074261EB1D
:1052900017414FEA0C444FEA910706FB07FC4FEA1F
:1052A0001C4C0CFB0BF7B0EBC74072EB573203FB07
:1052B0000CF734BFA2EBC742B2EBC74261EB5731E8
:1052C0000CFB0EF7B0EBC70072EB57720CFB08F744
:1052D00034BFA2EBC702B2EBC70261EB5771039F69
:1052E0004FEA816141EA921104EBCC044FEAD137D5
:1052F0004FEA826206FB07FC42EA90124FEA8060A6
:105300004FEA1C4C0CFB0BF7D21B03FB0CF761EBB9
:1053100007010CFB0EF7B0EB074072EB17420CFBDA
:1053200008F734BFA2EB0742B2EB074261EB17412B
:105330004FEA8C554FEA910704EB9C2406FB07FCCF
:105340004FEA1C4C0CFB0BF7B0EBC74072EB57322B
:1053500003FB0CF734BFA2EBC742B2EBC74261EBD1
:1053600057310CFB0EF7B0EBC70072EB57720CFB1A
:1053700008F734BFA2EBC702B2EBC70261EB57716B
:1053800015EB4C254FEA816141EA92114FEA8262A6
:105390004FEAD13742EA901206FB07FC44F10004C1
:1053A0004FEA80604FEA1C4C0CFB0BF7D21B03FB4F
:1053B0000CF761EB07010CFB0EF7B0EB074072EB4B
:1053C00017420CFB08F734BFA2EB0742B2EB0742CF
:1053D00061EB174115EB1C154FEA813141EA92410F
:1053E0004FEA823242EA90424FEA80304FEA0C762E
:1053F00044F1000448EA03434EEA0B484FF0000E24
:10540000B2EB080C71EB030724BF624639464EEB42
:105410000E0E4FF0000B0018524149414BEB0B0BA5
:10542000B2EB080C71EB03077BF1000B24BF624663
:1054300039464EEB0E0E4FF0000B00185241494119
:105440004BEB0B0BB2EB080C71EB03077BF1000B82
:1054500024BF624639464EEB0E0E51EA020718BFD2
:1054600046F0010616EB0E7655F1000254F10001EC
:1054700003D5BDE88901BDE80088BDE88901BDE824
:105480000048B619524141EB0101A3F101037047F5
:1054900080807F7E7D7C7B7A797877767675747371
:1054A000727171706F6E6E6D6C6C6B6A6A69686830
:1054B000676666656464636362616160605F5F5EC6
:1054C0005E5D5D5C5C5B5B5A5A595958585757563C
:1054D00056555555545453535252525151505050A1
:1054E0004F4F4F4E4E4D4D4D4C4C4C4B4B4B4A4AF3
:1054F0004A49494948484847474747464646454537
:10550000454444444443434343424242424141416F
:1055100046EA0646A3F570534FEA164646EA425657
:105520004FEAD22242EA415210B54FEAD121A3F10B
:10553000010300F02FF820F0004000F1020C00F011
:10554000004701EB00501146BCF5006F40EA070030
:1055500000D210BDBAF1000F0AD01CB503B44FF051
:1055600004004FF004014FF000000FBCBDE81040F4
:105570004FF00001BBF1010FB9BF04484FF0FF31FC
:105580000348002140EA070010BD00BFFFFFEF7F86
:105590000000F07F002B9C4630D477002BD01CB548
:1055A0004FEA370703B44FF010004FF01001BAF183
:1055B000000F06D0BCF1000FDCBF40F0080040F047
:1055C00008014FF000000FBCBDE810400BF1010BCB
:1055D000BBF1010F08BF5FEA170722BF12F10102FA
:1055E00011F101014FF0004143F1000300F00040D0
:1055F00043EA00007047F9D35708D0E746EA064669
:1056000013F1400F4FEA16461FDD13F1200FDFBFE5
:1056100016430A46002120335B42BED0C3F1200767
:1056200046EA064602FA07F74FEA164646EA070632
:10563000C3F1200722FA03F201FA07F721FA03F176
:105640004FF0000342EA0702A7E746EA020646EAED
:1056500006464FEA164646EA0106BCBF46EA06463B
:10566000360C4FF000034FF000024FF0000194E7BA
:105670002DE9804C9A46934670B491E8380007C8EB
:1056800031EA400C48BF34EA430C03D5FFF7A4FDD0
:10569000FFF780FFF0BCBDE8008C2DE9804C9A46F6
:1056A000934670B491E8380007C831EA400C48BF0F
:1056B00034EA430C03D5FFF78FFDFFF729FFF0BC59
:1056C000BDE8008C2DE9804C9A46934670B491E871
:1056D000380007C810F0804F08BF13F0804F03D187
:1056E00000F01AF8FFF756FFF0BCBDE8008C2DE97A
:1056F000804C9A46934670B491E8380007C810F081
:10570000804F08BF13F0804F03D100F005F8FFF77A
:10571000FFFEF0BCBDE8008C20F07F4780EA03006C
:1057200023F07F4C07EB0C03A3F57C5300F0004003
:10573000A3F1FE0392F0000F00F0B38095F0000F8C
:1057400000F077802DE901494FEA11404FEA1446F5
:1057500021EA004800FB06FC24EA064708FB06F69F
:1057600007FB08F800FB07F718EB06484CEB164C54
:105770004FEA124B18EB07484FEA15464CEB17401F
:1057800022EA0B4E0BFB06FC25EA06470EFB06F64B
:1057900007FB0EFE0BFB07F71EEB064E4CEB164C01
:1057A0004FF000061EEB074E4CEB174B18EB0B08A7
:1057B00040F1000018EB0E0B58EB000840F1000020
:1057C0008F1A4FF000013CBFC943661B14BFB5EBF5
:1057D000040C00213CBFC943F61B4FEA17444EEAB4
:1057E0008E0E27EA04454FEA1C4704FB07622CEAA9
:1057F000074C05FB07F70CFB05F604FB0CFC16EB4E
:10580000074642EB174216EB0C4642EB1C421BEBE1
:10581000060658EB0202414146EA9E0601D5BDE864
:105820000189B619524141EB0101A3F10103BDE821
:1058300001894FEA14454FEA114724EA054621EA57
:10584000074C05FB07F406FB07F70CFB06F105FB0D
:105850000CFC11EB074144EB17444FEA124711EBE4
:105860000C4144EB1C4422EA074C05FB07F206FB03
:1058700007F70CFB06F605FB0CFC16EB074642EBA4
:10588000174216EB0C4642EB1C456A1854F1000116
:1058900048BF7047B619524141EB0101A3F1010322
:1058A000704795F0000F37D04FEA11424FEA144786
:1058B00021EA024624EA074C02FB07F106FB07F740
:1058C0000CFB06F402FB0CFC14EB074441EB174104
:1058D0004FEA154714EB0C4441EB1C4125EA074CF9
:1058E00002FB07F506FB07F70CFB06F602FB0CFCB8
:1058F00016EB074645EB174516EB0C4645EB1C42ED
:10590000121951F1000148BF7047B619524141EBDD
:105910000101A3F1010370474FEA14454FEA114713
:1059200024EA054621EA074C05FB07F106FB07F7C9
:105930000CFB06F24FF0000605FB0CFC12EB0742D5
:1059400041EB174112EB0C4251EB1C4148BF704731
:10595000921841EB0101A3F101037047490050EA9D
:10596000C12018BF04204A0D18BF40F0010040F2CA
:10597000FF72B2EB515F08BF40F00200012808BF80
:105980000520704740F2013200204FF0E04100F066
:10599000FBBC0000024A0020110700F0F5BC00002B
:1059A00001FDFFFF10B50446D1E9000100F002F847
:1059B000206010BDF8B504460D466A4600F06AF84E
:1059C00000987E30009000281EDC002213462046FE
:1059D000294600F037F917D0002140F608004FF0B3
:1059E000000006462046294600F0E6F8044640F648
:1059F000080006EA00014FF0000034F0004004BF48
:105A00000220FFF7DCF829E00098FF2828DB0021BE
:105A100008464FF0000000F44006002213462046DE
:105A2000294600F0B5FA8CBF002501250220FFF7BA
:105A3000C6F84FF0FF4446B1002D0CBF4FF40000F4
:105A40004FF48000B04218BF084C042108464FF0C4
:105A50000000002D04BF84F00040F8BD2046F8BDD2
:105A600020462946BDE8F84000F0A6B8FFFF7F7F3A
:105A700010B504460A46D4E90003194600F036F88A
:105A8000C4E9000110BD30380A2801D20120704756
:105A90000020704710B5144600222260114A21F000
:105AA00000439342A8BF10BD53EA000208BF10BDD7
:105AB000B3F5801FA8BF226807DA362200F064FC25
:105AC0006FF0350221F000432260DFF81CC06FF355
:105AD0001E510CEB23531A4441F0FF5141F0005189
