:020000040800F2
:10000000700600202902000897060008170500085E
:10001000B9050008E3020008950E00080000000082
:100020000000000000000000000000006907000858
:10003000E70200080000000025070008E10A0008A8
:10004000430200084302000843020008430200087C
:100050004302000843020008E902000843020008C6
:1000600007030008250300085503000843020008A1
:10007000430200084302000843020008430200084C
:10008000430200084302000843020008430200083C
:10009000430200084302000843020008430200082C
:1000A000430200084302000843020008430200081C
:1000B000430200084302000843020008430200080C
:1000C00043020008430200084302000843020008FC
:1000D00043020008430200084302000843020008EC
:1000E00043020008430200084302000843020008DC
:1000F00043020008430200084302000843020008CC
:1001000043020008430200084302000843020008BB
:1001100043020008430200084302000843020008AB
:10012000430200084302000843020008430200089B
:10013000430200084302000843020008430200088B
:10014000430200084302000843020008430200087B
:10015000430200084302000843020008430200086B
:10016000430200084302000843020008430200085B
:10017000430200084302000843020008430200084B
:10018000430200084302000800F002F800F03CF8C7
:100190000AA090E8000C82448344AAF10107DA45E2
:1001A00001D100F031F8AFF2090EBAE80F0013F0F8
:1001B000010F18BFFB1A43F001031847100E00008F
:1001C000300E0000103A24BF78C878C1FAD8520720
:1001D00024BF30C830C144BF04680C6070470000C1
:1001E0000023002400250026103A28BF78C1FBD840
:1001F000520728BF30C148BF0B6070471FB500F0E1
:10020000DFFE1FBD10B510BD00F031F81146FFF73D
:10021000F5FF00F083FE00F04FF803B4FFF7F2FFA4
:1002200003BC00F057F80000094880470948004720
:10023000FEE7FEE7FEE7FEE7FEE7FEE7FEE7FEE796
:10024000FEE7FEE704480549054A064B70470000F3
:10025000210B0008890100087000002070060020B2
:10026000700200207002002070477047704775468A
:1002700000F02CF8AE4605006946534620F0070012
:10028000854618B020B5FFF7DDFFBDE820404FF0F0
:1002900000064FF000074FF000084FF0000B21F070
:1002A0000701AC46ACE8C009ACE8C009ACE8C0093D
:1002B000ACE8C0098D46704710B50446AFF3008026
:1002C0002046BDE81040FFF7A8BF00000048704777
:1002D0000C00002001491820ABBEFEE726000200FA
:1002E000704700BFFEE7704710B5012000F050F8DE
:1002F000012804D10A2000F0CFFD00BFFEE7012055
:1003000000F040F810BD10B5042000F041F80128BD
:1003100004D10A2000F0C0FD00BFFEE7042000F079
:1003200031F810BD10B5082000F032F8012808D1CE
:100330000A2000F0B1FD0548006810B90120044909
:100340000860082000F01EF810BD00000C024242B8
:10035000A882424210B5102000F01AF8012808D1F6
:100360000A2000F099FD0548006810B900200449F2
:100370000860102000F006F810BD00001002424294
:10038000A08242420149086070470000143C0140CD
:1003900001460020034A12680A400AB1012000E029
:1003A00000207047143C0140002123498279002A33
:1003B0003AD00A46126803689A430B461A600A1D2F
:1003C000126803689A430B1D1A60027911440A6887
:1003D00003681A430A60184A0832126803689A438D
:1003E000154B08331A601A1D126803689A43124BA2
:1003F0000C331A604279102A0ED11A1F1268036852
:100400001A430D4B08331A601A1D126803681A4309
:10041000094B0C331A600DE00749427911440A6810
:1004200003681A430A6005E0027911440A68036808
:100430009A430A6070470000003C0140F0B50A464C
:1004400000210023002400BF3DE0012505FA01F34F
:10045000156805EA03049C4234D105684F00032661
:10046000BE40B543056015794E00B540066835437A
:1004700005601579012D02D01579022D16D18568F8
:100480004F000326BE40B543856055794E00B54008
:10049000866835438560456801268E40B5434560D2
:1004A000456896798E40B6B235434560C5684F00C1
:1004B0000326BE40B543C560D5794E00B540C66839
:1004C0003543C560491C1029BFD3F0BDF0B50023EA
:1004D00000244D07ED0E02FA05F3CE1000F12005C1
:1004E00055F826504E07F70E0F26BE40B543CF10E5
:1004F00000F1200646F82750CE1000F1200555F8EF
:10050000265045EA0304CE1000F1200545F82640A8
:10051000F0BD0183704700BFFEE700001CB501215C
:10052000112000F001F900208DF804001C2000903B
:1005300001208DF8070069460748FFF77FFF00207C
:100540008DF80400012000908DF8070069460348EB
:10055000FFF774FF1CBD00000010024000000240C5
:100560001CB50121222000F0DFF801208DF80400E5
:10057000009003208DF8050000208DF80600012072
:100580008DF8070069460A48FFF758FF012108481F
:10059000FFF7BFFF4FF48060009069460548FFF702
:1005A0004DFF4FF480610348FFF7B3FF1CBD00000F
:1005B000000402400014024000BFFEE70EB5012116
:1005C000880300F0C1F80021084600F0CFF80221AE
:1005D000042000F0CBF80321042000F0C7F8042128
:1005E000084600F0C3F806208DF8080002208DF8B8
:1005F000090003208DF80A0001208DF80B0002A8E5
:1006000000F04AF808208DF8080001208DF8090054
:1006100002208DF80A0001208DF80B0002A800F0DE
:100620003BF809208DF8080002208DF80900012010
:100630008DF80A008DF80B0002A800F02DF80A20B2
:100640008DF8080002208DF8090000208DF80A00BE
:1006500001208DF80B0002A800F01EF80120009088
:1006600000208DF8040008208DF8050001208DF889
:1006700006006846FFF798FE1C20009000208DF8C9
:1006800004000C208DF8050001208DF80600684656
:10069000FFF78AFE0EBD704770B5002100230F22C0
:1006A000C4781CB3174C246804F4E064C4F5E06417
:1006B000C4F30721C1F10404E3B20A4144789C4029
:1006C000E1B28478144021430C07210E0E4C0578CA
:1006D0006155047804F01F050124AC4005786D11C4
:1006E000AD0005F1E025C5F8004109E0047804F00B
:1006F0001F050124AC40054D0678761145F82640CB
:1007000070BD00000CED00E000E400E080E100E0DE
:1007100002490143024A1160704700000000FA05D7
:100720000CED00E07047000029B1064A1268024350
:10073000044B1A6004E0034A12688243014B1A60BA
:10074000704700003038024029B1064A126802435F
:10075000044B1A6004E0034A12688243014B1A609A
:1007600070470000443802407047000030B5002256
:100770008B071C0F0F2303FA04F20B4B8C1053F85A
:1007800024309343084C8D1044F8253023468C10B8
:1007900053F824308C07240F00FA04F42343024C4E
:1007A0008D1044F8253030BD0838014010B52DEDCE
:1007B000048BF0EE408AB0EE609A2348006808EEA1
:1007C000100A002431E0B8EEC80AB4EEE80AF1EEEF
:1007D00010FA13D2B8EEC80A30EE090ABDEEC00A0C
:1007E000B0EE408AB8EEC80AB4EEE80AF1EE10FAAC
:1007F00017DDBDEEE80AB0EE408A12E0B8EEC80A96
:1008000030EE490ABDEEC00AB0EE408AB8EEC80A22
:10081000B4EEE80AF1EE10FA03D2BDEEE80AB0EE4B
:10082000408AB8EEC80A00F011F8B8EEC80AB4EE73
:10083000680AF1EE10FAC6D1BDEEE80A024880ED72
:10084000000ABDEC048B10BD0800002010B52DED92
:10085000028BB0EE408A9FED160AB4EEC08AF1EE2C
:1008600010FA04DD9FED120AB0EE408A08E0B5EE02
:10087000C08AF1EE10FA03D29FED0E0AB0EE408A64
:10088000B3EE040A28EE000A9FED091AC0EE010A31
:10089000B1EE040A30EE800ABCEEC00A10EE104A37
:1008A0002146054800F0B1FABDEC028B10BD0000F6
:1008B00000003443000000000004014010B52DED9D
:1008C000028BB0EE408A9FED160AB4EEC08AF1EEBC
:1008D00010FA04DD9FED120AB0EE408A08E0B5EE92
:1008E000C08AF1EE10FA03D29FED0E0AB0EE408AF4
:1008F000B3EE040A28EE000A9FED091AC0EE010AC1
:10090000B1EE040A30EE800ABCEEC00A10EE104AC6
:100910002146054800F077FABDEC028B10BD0000BF
:1009200000008743000000000004014010B52DEDD9
:10093000048BF0EE408AB0EE609A2348006808EE1F
:10094000100A31E0B8EEC80AB4EEE80AF1EE10FA87
:1009500013D2B8EEC80A30EE090ABDEEC00AB0EEF6
:10096000408AB8EEC80AB4EEE80AF1EE10FA17DDD4
:10097000BDEEE80AB0EE408A12E0B8EEC80A30EEEA
:10098000490ABDEEC00AB0EE408AB8EEC80AB4EE1D
:10099000E80AF1EE10FA03D2BDEEE80AB0EE408AA2
:1009A000B8EEC80AFFF78AFFB8EEC80AB4EE680AC4
:1009B000F1EE10FAC6D1BDEEE80A034880ED000A58
:1009C000BDEC048B10BD0000040000200CB500201D
:1009D000019000903448006840F48030324908604B
:1009E00000BF3148006800F4003000900198401CBE
:1009F0000190009818B90198B0F5A04FF1D12A489C
:100A0000006800F4003010B10120009001E00020E7
:100A100000900098012846D123484030006840F0FB
:100A200080502149403108602048006840F440402F
:100A30001E4908601C48083000681B4908310860DE
:100A40000846006840F4004008600846006840F42A
:100A5000A05008601648091F0860081F006840F091
:100A60008070091F086000BF0F48006800F0007028
:100A70000028F9D040F205700E4908600A48083095
:100A8000006820F003000849083108600846006843
:100A900040F00200086000BF03480830006800F022
:100AA0000C000828F8D10CBD00380240007000404E
:100AB00008544007003C0240042808D14FF0E021D0
:100AC000096941F004014FF0E022116107E04FF0A5
:100AD000E021096921F004014FF0E0221161704723
:100AE0007047000010B504466FF00400FFF7E4FF04
:100AF000E11704EB5171C1F3C701074A11701046A9
:100B0000007800EB4001C1EBC0104FF6FF7101EA25
:100B1000C0000249088010BD000000200200002033
:100B200010B51548006840F4700013490860134878
:100B3000006840F001001149086000200F490831A9
:100B400008600E4800680E4908400C4908600D48CE
:100B5000091D0860081F006820F48020091F086034
:100B6000002006490C310860FFF730FF4FF00060AD
:100B700001498039086010BD88ED00E0003802406E
:100B8000FFFFF6FE1030002430B58BB005460C4652
:100B900001210220FFF7D8FD01210420FFF7C4FD49
:100BA000032206212948FFF791FC03220721274849
:100BB000FFF78CFCC020069002208DF81C0003205B
:100BC0008DF81D0000208DF81E0001208DF81F00FB
:100BD00006A91E48FFF732FC0995ADF82040002019
:100BE000ADF82800ADF822008DF82A0008A91848B1
:100BF00000F00EF901A800F0FCF86020ADF8040048
:100C00000120ADF806000020ADF81000039001A906
:100C10000F4800F047F801A90D4800F08BF80821B3
:100C20000B4800F07DF80821094800F0D5F80121B3
:100C3000074800F00FF80121054800F023F80121D2
:100C4000034800F013F80BB030BD0000000802406C
:100C50000004014021B1028842F08002028004E0D9
:100C600002884FF67F731A400280704721B10288D4
:100C700042F00102028004E002884FF6FE731A403F
:100C80000280704731B1B0F8442042F40042A0F82D
:100C9000442005E0B0F84420C2F30E02A0F844203E
:100CA0007047000070B5002400220023058C4FF629
:100CB000FE7635400584028C8388048B4FF68F7551
:100CC0002C40B51E2C400D882C43751E2A408D8962
:100CD0002A434D882A43104DA84202D00F4DA84206
:100CE00013D14FF6F7752A40CD892A434FF6FB758D
:100CF0002A408D882A434FF6FF652B404FF6FF555B
:100D00002B400D8A2B434D8A2B43838004838D68AF
:100D10004563028470BD00000000014000040140F2
:100D20000A460021018B4FF6F773194011430183E6
:100D30007047000070B5002400220023058C4FF698
:100D4000EF7635400584028C8388048B48F6FF7566
:100D50002C404FF6FF452C400D884FF6FF7606EAF3
:100D600005252C434FF6DF752A408D8906EA0515C7
:100D70002A434D8806EA05152A43154DA84202D09C
:100D8000144DA8421DD14FF67F752A40CD894FF6EC
:100D9000FF7606EA05152A434FF6BF752A408D886F
:100DA00006EA05152A434FF6FF352B404FF2FF7533
:100DB0002B400D8A06EA85052B434D8A06EA8505F8
:100DC0002B43838004838D688563028470BD00009B
:100DD00000000140000401400A460021018B4FF24F
:100DE000FF7319404FF6FF7303EA0223194301838F
:100DF0007047002101804180818081608181C181B3
:100E000001824182704741637047816370470000EF
:100E100000220288184B98420ED0184B98420BD0F3
:100E2000B0F1804F08D0164B984205D0154B984230
:100E300002D0154B984204D14FF68F731A404B885D
:100E40001A43124B984207D0114B984204D04FF6E8
:100E5000FF431A400B891A4302804B68C3620B8818
:100E60000385054B984202D0044B984201D18B7AFE
:100E70000386012383827047000001400004014083
:100E80000004004000080040000C0040001000403A
:100E90000014004000BFFEE770B504464FF4077031
:100EA00094FBF0F0C6B24FF4077094FBF0F100FB36
:100EB000114085B205E04FF4077000F009F8701E8C
:100EC000C6B2002EF7D115B1284600F001F870BD6A
:100ED0000146114A12884A434FF0E0235A6100222A
:100EE0009A611A46126942F001021A6100BF4FF07E
:100EF000E022106900F001021AB100F48032002AE9
:100F0000F5D04FF0E022126922F001024FF0E02309
:100F10001A6100229A61704702000020A820FFF7A2
:100F2000E1FD4FF4A060FFF7F3FBFFF719FBFFF7BC
:100F3000F5FAFFF743FB44F29F11C720FFF724FEA9
:100F4000F7EE000A9FED1B0AFFF7F0FCF7EE000A30
:100F50009FED180AFFF72AFC4FF47A60FFF79CFF19
:100F600027E01548006808B9012000E00020124978
:100F70000860F7EE000A9FED0F0AFFF7D7FCF7EEC7
:100F8000000A9FED0C0AFFF711FC4FF4FA60FFF71F
:100F900083FFF7EE000A9FED090AFFF7C7FCF7EEA3
:100FA000000AB3EE040AFFF701FC4FF4FA60FFF702
:100FB00073FFD6E7000000008082404200004842F4
:100FC0004FF04070E1EE100A70470000EC0F00088F
:100FD000000000200C000000C4010008F80F000809
:100FE0000C00002064060000E00100080000000082
:080FF0000000000000000000F9
:040000050800018965
:00000001FF
